{
	"contracts/1_KipuBank.sol": {
		"Bank": {
			"abi": [
				{
					"inputs": [
						{
							"internalType": "uint256",
							"name": "_bankCap",
							"type": "uint256"
						}
					],
					"stateMutability": "nonpayable",
					"type": "constructor"
				},
				{
					"inputs": [],
					"name": "Bank_AccountAlreadyExists",
					"type": "error"
				},
				{
					"inputs": [],
					"name": "Bank_AccountNotExists",
					"type": "error"
				},
				{
					"inputs": [],
					"name": "Bank_DifferentOwner",
					"type": "error"
				},
				{
					"inputs": [],
					"name": "Bank_ExceedBankCap",
					"type": "error"
				},
				{
					"inputs": [],
					"name": "Bank_ExceedWithdrawAmount",
					"type": "error"
				},
				{
					"inputs": [],
					"name": "Bank_InsuficientFunds",
					"type": "error"
				},
				{
					"inputs": [],
					"name": "Bank_InvalidDeposit",
					"type": "error"
				},
				{
					"inputs": [],
					"name": "Bank_NoReentrancy",
					"type": "error"
				},
				{
					"inputs": [],
					"name": "Bank_TransferError",
					"type": "error"
				},
				{
					"anonymous": false,
					"inputs": [
						{
							"indexed": true,
							"internalType": "address",
							"name": "origin",
							"type": "address"
						},
						{
							"indexed": false,
							"internalType": "uint256",
							"name": "valor",
							"type": "uint256"
						}
					],
					"name": "Bank_Deposit",
					"type": "event"
				},
				{
					"anonymous": false,
					"inputs": [
						{
							"indexed": true,
							"internalType": "address",
							"name": "destination",
							"type": "address"
						},
						{
							"indexed": false,
							"internalType": "uint256",
							"name": "valor",
							"type": "uint256"
						}
					],
					"name": "Bank_Withdraw",
					"type": "event"
				},
				{
					"inputs": [
						{
							"internalType": "string",
							"name": "_email",
							"type": "string"
						},
						{
							"internalType": "string",
							"name": "_name",
							"type": "string"
						}
					],
					"name": "createAccount",
					"outputs": [],
					"stateMutability": "payable",
					"type": "function"
				},
				{
					"inputs": [],
					"name": "deposit",
					"outputs": [],
					"stateMutability": "payable",
					"type": "function"
				},
				{
					"inputs": [
						{
							"internalType": "address",
							"name": "usuario",
							"type": "address"
						}
					],
					"name": "getBalance",
					"outputs": [
						{
							"internalType": "uint256",
							"name": "",
							"type": "uint256"
						}
					],
					"stateMutability": "view",
					"type": "function"
				},
				{
					"inputs": [],
					"name": "i_bankCap",
					"outputs": [
						{
							"internalType": "uint256",
							"name": "",
							"type": "uint256"
						}
					],
					"stateMutability": "view",
					"type": "function"
				},
				{
					"inputs": [],
					"name": "i_contractOwner",
					"outputs": [
						{
							"internalType": "address",
							"name": "",
							"type": "address"
						}
					],
					"stateMutability": "view",
					"type": "function"
				},
				{
					"inputs": [],
					"name": "i_maxWithdrawAmount",
					"outputs": [
						{
							"internalType": "uint256",
							"name": "",
							"type": "uint256"
						}
					],
					"stateMutability": "view",
					"type": "function"
				},
				{
					"inputs": [],
					"name": "s_depositCounter",
					"outputs": [
						{
							"internalType": "uint256",
							"name": "",
							"type": "uint256"
						}
					],
					"stateMutability": "view",
					"type": "function"
				},
				{
					"inputs": [],
					"name": "s_totalBankBalance",
					"outputs": [
						{
							"internalType": "uint256",
							"name": "",
							"type": "uint256"
						}
					],
					"stateMutability": "view",
					"type": "function"
				},
				{
					"inputs": [],
					"name": "s_withdrawCounter",
					"outputs": [
						{
							"internalType": "uint256",
							"name": "",
							"type": "uint256"
						}
					],
					"stateMutability": "view",
					"type": "function"
				},
				{
					"inputs": [
						{
							"internalType": "uint256",
							"name": "monto",
							"type": "uint256"
						}
					],
					"name": "withdraw",
					"outputs": [],
					"stateMutability": "nonpayable",
					"type": "function"
				}
			],
			"devdoc": {
				"author": "lean98av",
				"details": "Este contrato es únicamente con fines académicos.",
				"events": {
					"Bank_Deposit(address,uint256)": {
						"params": {
							"origin": "Dirección del usuario que deposita",
							"valor": "Monto depositado"
						}
					},
					"Bank_Withdraw(address,uint256)": {
						"params": {
							"destination": "Dirección del usuario que retira",
							"valor": "Monto retirado"
						}
					}
				},
				"kind": "dev",
				"methods": {
					"constructor": {
						"params": {
							"_bankCap": "Límite global de fondos que puede recibir el banco"
						}
					},
					"createAccount(string,string)": {
						"params": {
							"_email": "Email del usuario",
							"_name": "Nombre del usuario"
						}
					},
					"deposit()": {
						"details": "Se sigue el patrón checks-effects-interactions"
					},
					"getBalance(address)": {
						"params": {
							"usuario": "Dirección del usuario a consultar"
						},
						"returns": {
							"_0": "Balance actual en wei"
						}
					},
					"withdraw(uint256)": {
						"params": {
							"monto": "Cantidad a retirar en wei"
						}
					}
				},
				"stateVariables": {
					"locked": {
						"details": "Flag interno para prevenir ataques de reentrancy"
					}
				},
				"title": "KipuBank",
				"version": 1
			},
			"evm": {
				"assembly": "    /* \"contracts/1_KipuBank.sol\":269:5793  contract Bank {... */\n  mstore(0x40, 0xe0)\n    /* \"contracts/1_KipuBank.sol\":1202:1211  0.1 ether */\n  0x016345785d8a0000\n    /* \"contracts/1_KipuBank.sol\":1155:1211  uint256 public immutable i_maxWithdrawAmount = 0.1 ether */\n  0xa0\n  swap1\n  dup2\n  mstore\n  pop\n    /* \"contracts/1_KipuBank.sol\":2843:2948  constructor(uint256 _bankCap) {... */\n  callvalue\n  dup1\n  iszero\n  tag_1\n  jumpi\n  0x00\n  dup1\n  revert\ntag_1:\n  pop\n  mload(0x40)\n  sub(codesize, bytecodeSize)\n  dup1\n  bytecodeSize\n  dup4\n  codecopy\n  dup2\n  dup2\n  add\n  0x40\n  mstore\n  dup2\n  add\n  swap1\n  tag_2\n  swap2\n  swap1\n  tag_3\n  jump\t// in\ntag_2:\n    /* \"contracts/1_KipuBank.sol\":2901:2911  msg.sender */\n  caller\n    /* \"contracts/1_KipuBank.sol\":2883:2911  i_contractOwner = msg.sender */\n  0xffffffffffffffffffffffffffffffffffffffff\n  and\n  0x80\n  dup2\n  0xffffffffffffffffffffffffffffffffffffffff\n  and\n  dup2\n  mstore\n  pop\n  pop\n    /* \"contracts/1_KipuBank.sol\":2933:2941  _bankCap */\n  dup1\n    /* \"contracts/1_KipuBank.sol\":2921:2941  i_bankCap = _bankCap */\n  0xc0\n  dup2\n  dup2\n  mstore\n  pop\n  pop\n    /* \"contracts/1_KipuBank.sol\":2843:2948  constructor(uint256 _bankCap) {... */\n  pop\n    /* \"contracts/1_KipuBank.sol\":269:5793  contract Bank {... */\n  jump(tag_6)\n    /* \"#utility.yul\":88:205   */\ntag_8:\n    /* \"#utility.yul\":197:198   */\n  0x00\n    /* \"#utility.yul\":194:195   */\n  dup1\n    /* \"#utility.yul\":187:199   */\n  revert\n    /* \"#utility.yul\":334:411   */\ntag_10:\n    /* \"#utility.yul\":371:378   */\n  0x00\n    /* \"#utility.yul\":400:405   */\n  dup2\n    /* \"#utility.yul\":389:405   */\n  swap1\n  pop\n    /* \"#utility.yul\":334:411   */\n  swap2\n  swap1\n  pop\n  jump\t// out\n    /* \"#utility.yul\":417:539   */\ntag_11:\n    /* \"#utility.yul\":490:514   */\n  tag_19\n    /* \"#utility.yul\":508:513   */\n  dup2\n    /* \"#utility.yul\":490:514   */\n  tag_10\n  jump\t// in\ntag_19:\n    /* \"#utility.yul\":483:488   */\n  dup2\n    /* \"#utility.yul\":480:515   */\n  eq\n    /* \"#utility.yul\":470:533   */\n  tag_20\n  jumpi\n    /* \"#utility.yul\":529:530   */\n  0x00\n    /* \"#utility.yul\":526:527   */\n  dup1\n    /* \"#utility.yul\":519:531   */\n  revert\n    /* \"#utility.yul\":470:533   */\ntag_20:\n    /* \"#utility.yul\":417:539   */\n  pop\n  jump\t// out\n    /* \"#utility.yul\":545:688   */\ntag_12:\n    /* \"#utility.yul\":602:607   */\n  0x00\n    /* \"#utility.yul\":633:639   */\n  dup2\n    /* \"#utility.yul\":627:640   */\n  mload\n    /* \"#utility.yul\":618:640   */\n  swap1\n  pop\n    /* \"#utility.yul\":649:682   */\n  tag_22\n    /* \"#utility.yul\":676:681   */\n  dup2\n    /* \"#utility.yul\":649:682   */\n  tag_11\n  jump\t// in\ntag_22:\n    /* \"#utility.yul\":545:688   */\n  swap3\n  swap2\n  pop\n  pop\n  jump\t// out\n    /* \"#utility.yul\":694:1045   */\ntag_3:\n    /* \"#utility.yul\":764:770   */\n  0x00\n    /* \"#utility.yul\":813:815   */\n  0x20\n    /* \"#utility.yul\":801:810   */\n  dup3\n    /* \"#utility.yul\":792:799   */\n  dup5\n    /* \"#utility.yul\":788:811   */\n  sub\n    /* \"#utility.yul\":784:816   */\n  slt\n    /* \"#utility.yul\":781:900   */\n  iszero\n  tag_24\n  jumpi\n    /* \"#utility.yul\":819:898   */\n  tag_25\n  tag_8\n  jump\t// in\ntag_25:\n    /* \"#utility.yul\":781:900   */\ntag_24:\n    /* \"#utility.yul\":939:940   */\n  0x00\n    /* \"#utility.yul\":964:1028   */\n  tag_26\n    /* \"#utility.yul\":1020:1027   */\n  dup5\n    /* \"#utility.yul\":1011:1017   */\n  dup3\n    /* \"#utility.yul\":1000:1009   */\n  dup6\n    /* \"#utility.yul\":996:1018   */\n  add\n    /* \"#utility.yul\":964:1028   */\n  tag_12\n  jump\t// in\ntag_26:\n    /* \"#utility.yul\":954:1028   */\n  swap2\n  pop\n    /* \"#utility.yul\":910:1038   */\n  pop\n    /* \"#utility.yul\":694:1045   */\n  swap3\n  swap2\n  pop\n  pop\n  jump\t// out\n    /* \"contracts/1_KipuBank.sol\":269:5793  contract Bank {... */\ntag_6:\n  mload(0x80)\n  mload(0xa0)\n  mload(0xc0)\n  codecopy(0x00, dataOffset(sub_0), dataSize(sub_0))\n  0x00\n  assignImmutable(\"0x77c32b454bb61eb9df9e3848d0ded3e59753acda90ae58befe564733aec82e4c\")\n  0x00\n  assignImmutable(\"0x933c48a61c3bad621ebc5d57117f9e773fefae4468bceaf9d3198a3bf7c1d678\")\n  0x00\n  assignImmutable(\"0x58a280f74f57bf051c40f060139dc747e015be52f68c57e2c4ab2e4bd4146f43\")\n  return(0x00, dataSize(sub_0))\nstop\n\nsub_0: assembly {\n        /* \"contracts/1_KipuBank.sol\":269:5793  contract Bank {... */\n      mstore(0x40, 0x80)\n      jumpi(tag_1, lt(calldatasize, 0x04))\n      shr(0xe0, calldataload(0x00))\n      dup1\n      0xd0e30db0\n      gt\n      tag_12\n      jumpi\n      dup1\n      0xd0e30db0\n      eq\n      tag_7\n      jumpi\n      dup1\n      0xe43fb75f\n      eq\n      tag_8\n      jumpi\n      dup1\n      0xf6687af7\n      eq\n      tag_9\n      jumpi\n      dup1\n      0xf8b2cb4f\n      eq\n      tag_10\n      jumpi\n      dup1\n      0xfb80212c\n      eq\n      tag_11\n      jumpi\n      jump(tag_1)\n    tag_12:\n      dup1\n      0x19289287\n      eq\n      tag_2\n      jumpi\n      dup1\n      0x2e1a7d4d\n      eq\n      tag_3\n      jumpi\n      dup1\n      0x35270e28\n      eq\n      tag_4\n      jumpi\n      dup1\n      0x38c22aef\n      eq\n      tag_5\n      jumpi\n      dup1\n      0xb6223838\n      eq\n      tag_6\n      jumpi\n    tag_1:\n      0x00\n      dup1\n      revert\n        /* \"contracts/1_KipuBank.sol\":3321:3927  function createAccount(... */\n    tag_2:\n      tag_13\n      0x04\n      dup1\n      calldatasize\n      sub\n      dup2\n      add\n      swap1\n      tag_14\n      swap2\n      swap1\n      tag_15\n      jump\t// in\n    tag_14:\n      tag_16\n      jump\t// in\n    tag_13:\n      stop\n        /* \"contracts/1_KipuBank.sol\":4870:5450  function withdraw(uint256 monto) external nonReentrant {... */\n    tag_3:\n      callvalue\n      dup1\n      iszero\n      tag_17\n      jumpi\n      0x00\n      dup1\n      revert\n    tag_17:\n      pop\n      tag_18\n      0x04\n      dup1\n      calldatasize\n      sub\n      dup2\n      add\n      swap1\n      tag_19\n      swap2\n      swap1\n      tag_20\n      jump\t// in\n    tag_19:\n      tag_21\n      jump\t// in\n    tag_18:\n      stop\n        /* \"contracts/1_KipuBank.sol\":1155:1211  uint256 public immutable i_maxWithdrawAmount = 0.1 ether */\n    tag_4:\n      callvalue\n      dup1\n      iszero\n      tag_22\n      jumpi\n      0x00\n      dup1\n      revert\n    tag_22:\n      pop\n      tag_23\n      tag_24\n      jump\t// in\n    tag_23:\n      mload(0x40)\n      tag_25\n      swap2\n      swap1\n      tag_26\n      jump\t// in\n    tag_25:\n      mload(0x40)\n      dup1\n      swap2\n      sub\n      swap1\n      return\n        /* \"contracts/1_KipuBank.sol\":1039:1079  address public immutable i_contractOwner */\n    tag_5:\n      callvalue\n      dup1\n      iszero\n      tag_27\n      jumpi\n      0x00\n      dup1\n      revert\n    tag_27:\n      pop\n      tag_28\n      tag_29\n      jump\t// in\n    tag_28:\n      mload(0x40)\n      tag_30\n      swap2\n      swap1\n      tag_31\n      jump\t// in\n    tag_30:\n      mload(0x40)\n      dup1\n      swap2\n      sub\n      swap1\n      return\n        /* \"contracts/1_KipuBank.sol\":1391:1422  uint256 public s_depositCounter */\n    tag_6:\n      callvalue\n      dup1\n      iszero\n      tag_32\n      jumpi\n      0x00\n      dup1\n      revert\n    tag_32:\n      pop\n      tag_33\n      tag_34\n      jump\t// in\n    tag_33:\n      mload(0x40)\n      tag_35\n      swap2\n      swap1\n      tag_26\n      jump\t// in\n    tag_35:\n      mload(0x40)\n      dup1\n      swap2\n      sub\n      swap1\n      return\n        /* \"contracts/1_KipuBank.sol\":4058:4423  function deposit() external payable {... */\n    tag_7:\n      tag_36\n      tag_37\n      jump\t// in\n    tag_36:\n      stop\n        /* \"contracts/1_KipuBank.sol\":1591:1624  uint256 public s_totalBankBalance */\n    tag_8:\n      callvalue\n      dup1\n      iszero\n      tag_38\n      jumpi\n      0x00\n      dup1\n      revert\n    tag_38:\n      pop\n      tag_39\n      tag_40\n      jump\t// in\n    tag_39:\n      mload(0x40)\n      tag_41\n      swap2\n      swap1\n      tag_26\n      jump\t// in\n    tag_41:\n      mload(0x40)\n      dup1\n      swap2\n      sub\n      swap1\n      return\n        /* \"contracts/1_KipuBank.sol\":1285:1319  uint256 public immutable i_bankCap */\n    tag_9:\n      callvalue\n      dup1\n      iszero\n      tag_42\n      jumpi\n      0x00\n      dup1\n      revert\n    tag_42:\n      pop\n      tag_43\n      tag_44\n      jump\t// in\n    tag_43:\n      mload(0x40)\n      tag_45\n      swap2\n      swap1\n      tag_26\n      jump\t// in\n    tag_45:\n      mload(0x40)\n      dup1\n      swap2\n      sub\n      swap1\n      return\n        /* \"contracts/1_KipuBank.sol\":5602:5791  function getBalance(address usuario) external view returns (uint256) {... */\n    tag_10:\n      callvalue\n      dup1\n      iszero\n      tag_46\n      jumpi\n      0x00\n      dup1\n      revert\n    tag_46:\n      pop\n      tag_47\n      0x04\n      dup1\n      calldatasize\n      sub\n      dup2\n      add\n      swap1\n      tag_48\n      swap2\n      swap1\n      tag_49\n      jump\t// in\n    tag_48:\n      tag_50\n      jump\t// in\n    tag_47:\n      mload(0x40)\n      tag_51\n      swap2\n      swap1\n      tag_26\n      jump\t// in\n    tag_51:\n      mload(0x40)\n      dup1\n      swap2\n      sub\n      swap1\n      return\n        /* \"contracts/1_KipuBank.sol\":1491:1523  uint256 public s_withdrawCounter */\n    tag_11:\n      callvalue\n      dup1\n      iszero\n      tag_52\n      jumpi\n      0x00\n      dup1\n      revert\n    tag_52:\n      pop\n      tag_53\n      tag_54\n      jump\t// in\n    tag_53:\n      mload(0x40)\n      tag_55\n      swap2\n      swap1\n      tag_26\n      jump\t// in\n    tag_55:\n      mload(0x40)\n      dup1\n      swap2\n      sub\n      swap1\n      return\n        /* \"contracts/1_KipuBank.sol\":3321:3927  function createAccount(... */\n    tag_16:\n        /* \"contracts/1_KipuBank.sol\":3438:3446  accounts */\n      0x00\n        /* \"contracts/1_KipuBank.sol\":3438:3458  accounts[msg.sender] */\n      dup1\n        /* \"contracts/1_KipuBank.sol\":3447:3457  msg.sender */\n      caller\n        /* \"contracts/1_KipuBank.sol\":3438:3458  accounts[msg.sender] */\n      0xffffffffffffffffffffffffffffffffffffffff\n      and\n      0xffffffffffffffffffffffffffffffffffffffff\n      and\n      dup2\n      mstore\n      0x20\n      add\n      swap1\n      dup2\n      mstore\n      0x20\n      add\n      0x00\n      keccak256\n        /* \"contracts/1_KipuBank.sol\":3438:3465  accounts[msg.sender].exists */\n      0x03\n      add\n      0x00\n      swap1\n      sload\n      swap1\n      0x0100\n      exp\n      swap1\n      div\n      0xff\n      and\n        /* \"contracts/1_KipuBank.sol\":3434:3501  if (accounts[msg.sender].exists) revert Bank_AccountAlreadyExists() */\n      iszero\n      tag_57\n      jumpi\n        /* \"contracts/1_KipuBank.sol\":3474:3501  Bank_AccountAlreadyExists() */\n      mload(0x40)\n      0x7845597700000000000000000000000000000000000000000000000000000000\n      dup2\n      mstore\n      0x04\n      add\n      mload(0x40)\n      dup1\n      swap2\n      sub\n      swap1\n      revert\n        /* \"contracts/1_KipuBank.sol\":3434:3501  if (accounts[msg.sender].exists) revert Bank_AccountAlreadyExists() */\n    tag_57:\n        /* \"contracts/1_KipuBank.sol\":3548:3557  i_bankCap */\n      immutable(\"0x77c32b454bb61eb9df9e3848d0ded3e59753acda90ae58befe564733aec82e4c\")\n        /* \"contracts/1_KipuBank.sol\":3536:3545  msg.value */\n      callvalue\n        /* \"contracts/1_KipuBank.sol\":3515:3533  s_totalBankBalance */\n      sload(0x04)\n        /* \"contracts/1_KipuBank.sol\":3515:3545  s_totalBankBalance + msg.value */\n      tag_58\n      swap2\n      swap1\n      tag_59\n      jump\t// in\n    tag_58:\n        /* \"contracts/1_KipuBank.sol\":3515:3557  s_totalBankBalance + msg.value > i_bankCap */\n      gt\n        /* \"contracts/1_KipuBank.sol\":3511:3598  if (s_totalBankBalance + msg.value > i_bankCap)... */\n      iszero\n      tag_60\n      jumpi\n        /* \"contracts/1_KipuBank.sol\":3578:3598  Bank_ExceedBankCap() */\n      mload(0x40)\n      0x97651d1e00000000000000000000000000000000000000000000000000000000\n      dup2\n      mstore\n      0x04\n      add\n      mload(0x40)\n      dup1\n      swap2\n      sub\n      swap1\n      revert\n        /* \"contracts/1_KipuBank.sol\":3511:3598  if (s_totalBankBalance + msg.value > i_bankCap)... */\n    tag_60:\n        /* \"contracts/1_KipuBank.sol\":3632:3753  Account({... */\n      mload(0x40)\n      dup1\n      0x80\n      add\n      0x40\n      mstore\n      dup1\n        /* \"contracts/1_KipuBank.sol\":3689:3690  0 */\n      0x00\n        /* \"contracts/1_KipuBank.sol\":3632:3753  Account({... */\n      dup2\n      mstore\n      0x20\n      add\n        /* \"contracts/1_KipuBank.sol\":3737:3742  _name */\n      dup3\n        /* \"contracts/1_KipuBank.sol\":3632:3753  Account({... */\n      dup2\n      mstore\n      0x20\n      add\n        /* \"contracts/1_KipuBank.sol\":3711:3717  _email */\n      dup4\n        /* \"contracts/1_KipuBank.sol\":3632:3753  Account({... */\n      dup2\n      mstore\n      0x20\n      add\n        /* \"contracts/1_KipuBank.sol\":3662:3666  true */\n      0x01\n        /* \"contracts/1_KipuBank.sol\":3632:3753  Account({... */\n      iszero\n      iszero\n      dup2\n      mstore\n      pop\n        /* \"contracts/1_KipuBank.sol\":3609:3617  accounts */\n      0x00\n        /* \"contracts/1_KipuBank.sol\":3609:3629  accounts[msg.sender] */\n      dup1\n        /* \"contracts/1_KipuBank.sol\":3618:3628  msg.sender */\n      caller\n        /* \"contracts/1_KipuBank.sol\":3609:3629  accounts[msg.sender] */\n      0xffffffffffffffffffffffffffffffffffffffff\n      and\n      0xffffffffffffffffffffffffffffffffffffffff\n      and\n      dup2\n      mstore\n      0x20\n      add\n      swap1\n      dup2\n      mstore\n      0x20\n      add\n      0x00\n      keccak256\n        /* \"contracts/1_KipuBank.sol\":3609:3753  accounts[msg.sender] = Account({... */\n      0x00\n      dup3\n      add\n      mload\n      dup2\n      0x00\n      add\n      sstore\n      0x20\n      dup3\n      add\n      mload\n      dup2\n      0x01\n      add\n      swap1\n      dup2\n      tag_61\n      swap2\n      swap1\n      tag_62\n      jump\t// in\n    tag_61:\n      pop\n      0x40\n      dup3\n      add\n      mload\n      dup2\n      0x02\n      add\n      swap1\n      dup2\n      tag_63\n      swap2\n      swap1\n      tag_62\n      jump\t// in\n    tag_63:\n      pop\n      0x60\n      dup3\n      add\n      mload\n      dup2\n      0x03\n      add\n      exp(0x0100, 0x00)\n      dup2\n      sload\n      dup2\n      0xff\n      mul\n      not\n      and\n      swap1\n      dup4\n      iszero\n      iszero\n      mul\n      or\n      swap1\n      sstore\n      pop\n      swap1\n      pop\n      pop\n        /* \"contracts/1_KipuBank.sol\":3764:3799  _updateVault(msg.sender, msg.value) */\n      tag_64\n        /* \"contracts/1_KipuBank.sol\":3777:3787  msg.sender */\n      caller\n        /* \"contracts/1_KipuBank.sol\":3789:3798  msg.value */\n      callvalue\n        /* \"contracts/1_KipuBank.sol\":3764:3776  _updateVault */\n      tag_65\n        /* \"contracts/1_KipuBank.sol\":3764:3799  _updateVault(msg.sender, msg.value) */\n      jump\t// in\n    tag_64:\n        /* \"contracts/1_KipuBank.sol\":3832:3841  msg.value */\n      callvalue\n        /* \"contracts/1_KipuBank.sol\":3810:3828  s_totalBankBalance */\n      0x04\n      0x00\n        /* \"contracts/1_KipuBank.sol\":3810:3841  s_totalBankBalance += msg.value */\n      dup3\n      dup3\n      sload\n      tag_66\n      swap2\n      swap1\n      tag_59\n      jump\t// in\n    tag_66:\n      swap3\n      pop\n      pop\n      dup2\n      swap1\n      sstore\n      pop\n        /* \"contracts/1_KipuBank.sol\":3851:3867  s_depositCounter */\n      0x02\n      0x00\n        /* \"contracts/1_KipuBank.sol\":3851:3869  s_depositCounter++ */\n      dup2\n      sload\n      dup1\n      swap3\n      swap2\n      swap1\n      tag_67\n      swap1\n      tag_68\n      jump\t// in\n    tag_67:\n      swap2\n      swap1\n      pop\n      sstore\n      pop\n        /* \"contracts/1_KipuBank.sol\":3898:3908  msg.sender */\n      caller\n        /* \"contracts/1_KipuBank.sol\":3885:3920  Bank_Deposit(msg.sender, msg.value) */\n      0xffffffffffffffffffffffffffffffffffffffff\n      and\n      0x2f91cfee4efcf1e8860273d9a24d031b028554299e93e18ff8a3ec3712fbf4ae\n        /* \"contracts/1_KipuBank.sol\":3910:3919  msg.value */\n      callvalue\n        /* \"contracts/1_KipuBank.sol\":3885:3920  Bank_Deposit(msg.sender, msg.value) */\n      mload(0x40)\n      tag_69\n      swap2\n      swap1\n      tag_26\n      jump\t// in\n    tag_69:\n      mload(0x40)\n      dup1\n      swap2\n      sub\n      swap1\n      log2\n        /* \"contracts/1_KipuBank.sol\":3321:3927  function createAccount(... */\n      pop\n      pop\n      jump\t// out\n        /* \"contracts/1_KipuBank.sol\":4870:5450  function withdraw(uint256 monto) external nonReentrant {... */\n    tag_21:\n        /* \"contracts/1_KipuBank.sol\":3055:3061  locked */\n      0x01\n      0x00\n      swap1\n      sload\n      swap1\n      0x0100\n      exp\n      swap1\n      div\n      0xff\n      and\n        /* \"contracts/1_KipuBank.sol\":3051:3089  if (locked) revert Bank_NoReentrancy() */\n      iszero\n      tag_71\n      jumpi\n        /* \"contracts/1_KipuBank.sol\":3070:3089  Bank_NoReentrancy() */\n      mload(0x40)\n      0xd67ab8e500000000000000000000000000000000000000000000000000000000\n      dup2\n      mstore\n      0x04\n      add\n      mload(0x40)\n      dup1\n      swap2\n      sub\n      swap1\n      revert\n        /* \"contracts/1_KipuBank.sol\":3051:3089  if (locked) revert Bank_NoReentrancy() */\n    tag_71:\n        /* \"contracts/1_KipuBank.sol\":3108:3112  true */\n      0x01\n        /* \"contracts/1_KipuBank.sol\":3099:3105  locked */\n      dup1\n      0x00\n        /* \"contracts/1_KipuBank.sol\":3099:3112  locked = true */\n      0x0100\n      exp\n      dup2\n      sload\n      dup2\n      0xff\n      mul\n      not\n      and\n      swap1\n      dup4\n      iszero\n      iszero\n      mul\n      or\n      swap1\n      sstore\n      pop\n        /* \"contracts/1_KipuBank.sol\":4940:4948  accounts */\n      0x00\n        /* \"contracts/1_KipuBank.sol\":4940:4960  accounts[msg.sender] */\n      dup1\n        /* \"contracts/1_KipuBank.sol\":4949:4959  msg.sender */\n      caller\n        /* \"contracts/1_KipuBank.sol\":4940:4960  accounts[msg.sender] */\n      0xffffffffffffffffffffffffffffffffffffffff\n      and\n      0xffffffffffffffffffffffffffffffffffffffff\n      and\n      dup2\n      mstore\n      0x20\n      add\n      swap1\n      dup2\n      mstore\n      0x20\n      add\n      0x00\n      keccak256\n        /* \"contracts/1_KipuBank.sol\":4940:4967  accounts[msg.sender].exists */\n      0x03\n      add\n      0x00\n      swap1\n      sload\n      swap1\n      0x0100\n      exp\n      swap1\n      div\n      0xff\n      and\n        /* \"contracts/1_KipuBank.sol\":4935:4999  if (!accounts[msg.sender].exists) revert Bank_AccountNotExists() */\n      tag_73\n      jumpi\n        /* \"contracts/1_KipuBank.sol\":4976:4999  Bank_AccountNotExists() */\n      mload(0x40)\n      0x566b044000000000000000000000000000000000000000000000000000000000\n      dup2\n      mstore\n      0x04\n      add\n      mload(0x40)\n      dup1\n      swap2\n      sub\n      swap1\n      revert\n        /* \"contracts/1_KipuBank.sol\":4935:4999  if (!accounts[msg.sender].exists) revert Bank_AccountNotExists() */\n    tag_73:\n        /* \"contracts/1_KipuBank.sol\":5021:5040  i_maxWithdrawAmount */\n      immutable(\"0x933c48a61c3bad621ebc5d57117f9e773fefae4468bceaf9d3198a3bf7c1d678\")\n        /* \"contracts/1_KipuBank.sol\":5013:5018  monto */\n      dup2\n        /* \"contracts/1_KipuBank.sol\":5013:5040  monto > i_maxWithdrawAmount */\n      gt\n        /* \"contracts/1_KipuBank.sol\":5009:5076  if (monto > i_maxWithdrawAmount) revert Bank_ExceedWithdrawAmount() */\n      iszero\n      tag_74\n      jumpi\n        /* \"contracts/1_KipuBank.sol\":5049:5076  Bank_ExceedWithdrawAmount() */\n      mload(0x40)\n      0x9df6f29b00000000000000000000000000000000000000000000000000000000\n      dup2\n      mstore\n      0x04\n      add\n      mload(0x40)\n      dup1\n      swap2\n      sub\n      swap1\n      revert\n        /* \"contracts/1_KipuBank.sol\":5009:5076  if (monto > i_maxWithdrawAmount) revert Bank_ExceedWithdrawAmount() */\n    tag_74:\n        /* \"contracts/1_KipuBank.sol\":5121:5126  monto */\n      dup1\n        /* \"contracts/1_KipuBank.sol\":5090:5098  accounts */\n      0x00\n        /* \"contracts/1_KipuBank.sol\":5090:5110  accounts[msg.sender] */\n      dup1\n        /* \"contracts/1_KipuBank.sol\":5099:5109  msg.sender */\n      caller\n        /* \"contracts/1_KipuBank.sol\":5090:5110  accounts[msg.sender] */\n      0xffffffffffffffffffffffffffffffffffffffff\n      and\n      0xffffffffffffffffffffffffffffffffffffffff\n      and\n      dup2\n      mstore\n      0x20\n      add\n      swap1\n      dup2\n      mstore\n      0x20\n      add\n      0x00\n      keccak256\n        /* \"contracts/1_KipuBank.sol\":5090:5118  accounts[msg.sender].balance */\n      0x00\n      add\n      sload\n        /* \"contracts/1_KipuBank.sol\":5090:5126  accounts[msg.sender].balance < monto */\n      lt\n        /* \"contracts/1_KipuBank.sol\":5086:5158  if (accounts[msg.sender].balance < monto) revert Bank_InsuficientFunds() */\n      iszero\n      tag_75\n      jumpi\n        /* \"contracts/1_KipuBank.sol\":5135:5158  Bank_InsuficientFunds() */\n      mload(0x40)\n      0x640858fb00000000000000000000000000000000000000000000000000000000\n      dup2\n      mstore\n      0x04\n      add\n      mload(0x40)\n      dup1\n      swap2\n      sub\n      swap1\n      revert\n        /* \"contracts/1_KipuBank.sol\":5086:5158  if (accounts[msg.sender].balance < monto) revert Bank_InsuficientFunds() */\n    tag_75:\n        /* \"contracts/1_KipuBank.sol\":5201:5206  monto */\n      dup1\n        /* \"contracts/1_KipuBank.sol\":5169:5177  accounts */\n      0x00\n        /* \"contracts/1_KipuBank.sol\":5169:5189  accounts[msg.sender] */\n      dup1\n        /* \"contracts/1_KipuBank.sol\":5178:5188  msg.sender */\n      caller\n        /* \"contracts/1_KipuBank.sol\":5169:5189  accounts[msg.sender] */\n      0xffffffffffffffffffffffffffffffffffffffff\n      and\n      0xffffffffffffffffffffffffffffffffffffffff\n      and\n      dup2\n      mstore\n      0x20\n      add\n      swap1\n      dup2\n      mstore\n      0x20\n      add\n      0x00\n      keccak256\n        /* \"contracts/1_KipuBank.sol\":5169:5197  accounts[msg.sender].balance */\n      0x00\n      add\n      0x00\n        /* \"contracts/1_KipuBank.sol\":5169:5206  accounts[msg.sender].balance -= monto */\n      dup3\n      dup3\n      sload\n      tag_76\n      swap2\n      swap1\n      tag_77\n      jump\t// in\n    tag_76:\n      swap3\n      pop\n      pop\n      dup2\n      swap1\n      sstore\n      pop\n        /* \"contracts/1_KipuBank.sol\":5238:5243  monto */\n      dup1\n        /* \"contracts/1_KipuBank.sol\":5216:5234  s_totalBankBalance */\n      0x04\n      0x00\n        /* \"contracts/1_KipuBank.sol\":5216:5243  s_totalBankBalance -= monto */\n      dup3\n      dup3\n      sload\n      tag_78\n      swap2\n      swap1\n      tag_77\n      jump\t// in\n    tag_78:\n      swap3\n      pop\n      pop\n      dup2\n      swap1\n      sstore\n      pop\n        /* \"contracts/1_KipuBank.sol\":5253:5270  s_withdrawCounter */\n      0x03\n      0x00\n        /* \"contracts/1_KipuBank.sol\":5253:5272  s_withdrawCounter++ */\n      dup2\n      sload\n      dup1\n      swap3\n      swap2\n      swap1\n      tag_79\n      swap1\n      tag_68\n      jump\t// in\n    tag_79:\n      swap2\n      swap1\n      pop\n      sstore\n      pop\n        /* \"contracts/1_KipuBank.sol\":5284:5296  bool success */\n      0x00\n        /* \"contracts/1_KipuBank.sol\":5310:5320  msg.sender */\n      caller\n        /* \"contracts/1_KipuBank.sol\":5302:5326  payable(msg.sender).call */\n      0xffffffffffffffffffffffffffffffffffffffff\n      and\n        /* \"contracts/1_KipuBank.sol\":5334:5339  monto */\n      dup3\n        /* \"contracts/1_KipuBank.sol\":5302:5344  payable(msg.sender).call{value: monto}(\"\") */\n      mload(0x40)\n      tag_80\n      swap1\n      tag_81\n      jump\t// in\n    tag_80:\n      0x00\n      mload(0x40)\n      dup1\n      dup4\n      sub\n      dup2\n      dup6\n      dup8\n      gas\n      call\n      swap3\n      pop\n      pop\n      pop\n      returndatasize\n      dup1\n      0x00\n      dup2\n      eq\n      tag_84\n      jumpi\n      mload(0x40)\n      swap2\n      pop\n      and(add(returndatasize, 0x3f), not(0x1f))\n      dup3\n      add\n      0x40\n      mstore\n      returndatasize\n      dup3\n      mstore\n      returndatasize\n      0x00\n      0x20\n      dup5\n      add\n      returndatacopy\n      jump(tag_83)\n    tag_84:\n      0x60\n      swap2\n      pop\n    tag_83:\n      pop\n        /* \"contracts/1_KipuBank.sol\":5283:5344  (bool success, ) = payable(msg.sender).call{value: monto}(\"\") */\n      pop\n      swap1\n      pop\n        /* \"contracts/1_KipuBank.sol\":5359:5366  success */\n      dup1\n        /* \"contracts/1_KipuBank.sol\":5354:5395  if (!success) revert Bank_TransferError() */\n      tag_85\n      jumpi\n        /* \"contracts/1_KipuBank.sol\":5375:5395  Bank_TransferError() */\n      mload(0x40)\n      0xbd6bfd0a00000000000000000000000000000000000000000000000000000000\n      dup2\n      mstore\n      0x04\n      add\n      mload(0x40)\n      dup1\n      swap2\n      sub\n      swap1\n      revert\n        /* \"contracts/1_KipuBank.sol\":5354:5395  if (!success) revert Bank_TransferError() */\n    tag_85:\n        /* \"contracts/1_KipuBank.sol\":5425:5435  msg.sender */\n      caller\n        /* \"contracts/1_KipuBank.sol\":5411:5443  Bank_Withdraw(msg.sender, monto) */\n      0xffffffffffffffffffffffffffffffffffffffff\n      and\n      0x925b6bd47038067d9f087d01bec4d4539c090b60cd50381d3b2733fc3b5aa466\n        /* \"contracts/1_KipuBank.sol\":5437:5442  monto */\n      dup4\n        /* \"contracts/1_KipuBank.sol\":5411:5443  Bank_Withdraw(msg.sender, monto) */\n      mload(0x40)\n      tag_86\n      swap2\n      swap1\n      tag_26\n      jump\t// in\n    tag_86:\n      mload(0x40)\n      dup1\n      swap2\n      sub\n      swap1\n      log2\n        /* \"contracts/1_KipuBank.sol\":4925:5450  {... */\n      pop\n        /* \"contracts/1_KipuBank.sol\":3142:3147  false */\n      0x00\n        /* \"contracts/1_KipuBank.sol\":3133:3139  locked */\n      0x01\n      0x00\n        /* \"contracts/1_KipuBank.sol\":3133:3147  locked = false */\n      0x0100\n      exp\n      dup2\n      sload\n      dup2\n      0xff\n      mul\n      not\n      and\n      swap1\n      dup4\n      iszero\n      iszero\n      mul\n      or\n      swap1\n      sstore\n      pop\n        /* \"contracts/1_KipuBank.sol\":4870:5450  function withdraw(uint256 monto) external nonReentrant {... */\n      pop\n      jump\t// out\n        /* \"contracts/1_KipuBank.sol\":1155:1211  uint256 public immutable i_maxWithdrawAmount = 0.1 ether */\n    tag_24:\n      immutable(\"0x933c48a61c3bad621ebc5d57117f9e773fefae4468bceaf9d3198a3bf7c1d678\")\n      dup2\n      jump\t// out\n        /* \"contracts/1_KipuBank.sol\":1039:1079  address public immutable i_contractOwner */\n    tag_29:\n      immutable(\"0x58a280f74f57bf051c40f060139dc747e015be52f68c57e2c4ab2e4bd4146f43\")\n      dup2\n      jump\t// out\n        /* \"contracts/1_KipuBank.sol\":1391:1422  uint256 public s_depositCounter */\n    tag_34:\n      sload(0x02)\n      dup2\n      jump\t// out\n        /* \"contracts/1_KipuBank.sol\":4058:4423  function deposit() external payable {... */\n    tag_37:\n        /* \"contracts/1_KipuBank.sol\":4121:4122  0 */\n      0x00\n        /* \"contracts/1_KipuBank.sol\":4108:4117  msg.value */\n      callvalue\n        /* \"contracts/1_KipuBank.sol\":4108:4122  msg.value == 0 */\n      sub\n        /* \"contracts/1_KipuBank.sol\":4104:4152  if (msg.value == 0) revert Bank_InvalidDeposit() */\n      tag_88\n      jumpi\n        /* \"contracts/1_KipuBank.sol\":4131:4152  Bank_InvalidDeposit() */\n      mload(0x40)\n      0x7803844200000000000000000000000000000000000000000000000000000000\n      dup2\n      mstore\n      0x04\n      add\n      mload(0x40)\n      dup1\n      swap2\n      sub\n      swap1\n      revert\n        /* \"contracts/1_KipuBank.sol\":4104:4152  if (msg.value == 0) revert Bank_InvalidDeposit() */\n    tag_88:\n        /* \"contracts/1_KipuBank.sol\":4199:4208  i_bankCap */\n      immutable(\"0x77c32b454bb61eb9df9e3848d0ded3e59753acda90ae58befe564733aec82e4c\")\n        /* \"contracts/1_KipuBank.sol\":4187:4196  msg.value */\n      callvalue\n        /* \"contracts/1_KipuBank.sol\":4166:4184  s_totalBankBalance */\n      sload(0x04)\n        /* \"contracts/1_KipuBank.sol\":4166:4196  s_totalBankBalance + msg.value */\n      tag_89\n      swap2\n      swap1\n      tag_59\n      jump\t// in\n    tag_89:\n        /* \"contracts/1_KipuBank.sol\":4166:4208  s_totalBankBalance + msg.value > i_bankCap */\n      gt\n        /* \"contracts/1_KipuBank.sol\":4162:4249  if (s_totalBankBalance + msg.value > i_bankCap)... */\n      iszero\n      tag_90\n      jumpi\n        /* \"contracts/1_KipuBank.sol\":4229:4249  Bank_ExceedBankCap() */\n      mload(0x40)\n      0x97651d1e00000000000000000000000000000000000000000000000000000000\n      dup2\n      mstore\n      0x04\n      add\n      mload(0x40)\n      dup1\n      swap2\n      sub\n      swap1\n      revert\n        /* \"contracts/1_KipuBank.sol\":4162:4249  if (s_totalBankBalance + msg.value > i_bankCap)... */\n    tag_90:\n        /* \"contracts/1_KipuBank.sol\":4260:4295  _updateVault(msg.sender, msg.value) */\n      tag_91\n        /* \"contracts/1_KipuBank.sol\":4273:4283  msg.sender */\n      caller\n        /* \"contracts/1_KipuBank.sol\":4285:4294  msg.value */\n      callvalue\n        /* \"contracts/1_KipuBank.sol\":4260:4272  _updateVault */\n      tag_65\n        /* \"contracts/1_KipuBank.sol\":4260:4295  _updateVault(msg.sender, msg.value) */\n      jump\t// in\n    tag_91:\n        /* \"contracts/1_KipuBank.sol\":4328:4337  msg.value */\n      callvalue\n        /* \"contracts/1_KipuBank.sol\":4306:4324  s_totalBankBalance */\n      0x04\n      0x00\n        /* \"contracts/1_KipuBank.sol\":4306:4337  s_totalBankBalance += msg.value */\n      dup3\n      dup3\n      sload\n      tag_92\n      swap2\n      swap1\n      tag_59\n      jump\t// in\n    tag_92:\n      swap3\n      pop\n      pop\n      dup2\n      swap1\n      sstore\n      pop\n        /* \"contracts/1_KipuBank.sol\":4347:4363  s_depositCounter */\n      0x02\n      0x00\n        /* \"contracts/1_KipuBank.sol\":4347:4365  s_depositCounter++ */\n      dup2\n      sload\n      dup1\n      swap3\n      swap2\n      swap1\n      tag_93\n      swap1\n      tag_68\n      jump\t// in\n    tag_93:\n      swap2\n      swap1\n      pop\n      sstore\n      pop\n        /* \"contracts/1_KipuBank.sol\":4394:4404  msg.sender */\n      caller\n        /* \"contracts/1_KipuBank.sol\":4381:4416  Bank_Deposit(msg.sender, msg.value) */\n      0xffffffffffffffffffffffffffffffffffffffff\n      and\n      0x2f91cfee4efcf1e8860273d9a24d031b028554299e93e18ff8a3ec3712fbf4ae\n        /* \"contracts/1_KipuBank.sol\":4406:4415  msg.value */\n      callvalue\n        /* \"contracts/1_KipuBank.sol\":4381:4416  Bank_Deposit(msg.sender, msg.value) */\n      mload(0x40)\n      tag_94\n      swap2\n      swap1\n      tag_26\n      jump\t// in\n    tag_94:\n      mload(0x40)\n      dup1\n      swap2\n      sub\n      swap1\n      log2\n        /* \"contracts/1_KipuBank.sol\":4058:4423  function deposit() external payable {... */\n      jump\t// out\n        /* \"contracts/1_KipuBank.sol\":1591:1624  uint256 public s_totalBankBalance */\n    tag_40:\n      sload(0x04)\n      dup2\n      jump\t// out\n        /* \"contracts/1_KipuBank.sol\":1285:1319  uint256 public immutable i_bankCap */\n    tag_44:\n      immutable(\"0x77c32b454bb61eb9df9e3848d0ded3e59753acda90ae58befe564733aec82e4c\")\n      dup2\n      jump\t// out\n        /* \"contracts/1_KipuBank.sol\":5602:5791  function getBalance(address usuario) external view returns (uint256) {... */\n    tag_50:\n        /* \"contracts/1_KipuBank.sol\":5662:5669  uint256 */\n      0x00\n        /* \"contracts/1_KipuBank.sol\":5686:5694  accounts */\n      dup1\n        /* \"contracts/1_KipuBank.sol\":5686:5703  accounts[usuario] */\n      0x00\n        /* \"contracts/1_KipuBank.sol\":5695:5702  usuario */\n      dup4\n        /* \"contracts/1_KipuBank.sol\":5686:5703  accounts[usuario] */\n      0xffffffffffffffffffffffffffffffffffffffff\n      and\n      0xffffffffffffffffffffffffffffffffffffffff\n      and\n      dup2\n      mstore\n      0x20\n      add\n      swap1\n      dup2\n      mstore\n      0x20\n      add\n      0x00\n      keccak256\n        /* \"contracts/1_KipuBank.sol\":5686:5710  accounts[usuario].exists */\n      0x03\n      add\n      0x00\n      swap1\n      sload\n      swap1\n      0x0100\n      exp\n      swap1\n      div\n      0xff\n      and\n        /* \"contracts/1_KipuBank.sol\":5681:5742  if (!accounts[usuario].exists) revert Bank_AccountNotExists() */\n      tag_96\n      jumpi\n        /* \"contracts/1_KipuBank.sol\":5719:5742  Bank_AccountNotExists() */\n      mload(0x40)\n      0x566b044000000000000000000000000000000000000000000000000000000000\n      dup2\n      mstore\n      0x04\n      add\n      mload(0x40)\n      dup1\n      swap2\n      sub\n      swap1\n      revert\n        /* \"contracts/1_KipuBank.sol\":5681:5742  if (!accounts[usuario].exists) revert Bank_AccountNotExists() */\n    tag_96:\n        /* \"contracts/1_KipuBank.sol\":5759:5767  accounts */\n      0x00\n        /* \"contracts/1_KipuBank.sol\":5759:5776  accounts[usuario] */\n      dup1\n        /* \"contracts/1_KipuBank.sol\":5768:5775  usuario */\n      dup4\n        /* \"contracts/1_KipuBank.sol\":5759:5776  accounts[usuario] */\n      0xffffffffffffffffffffffffffffffffffffffff\n      and\n      0xffffffffffffffffffffffffffffffffffffffff\n      and\n      dup2\n      mstore\n      0x20\n      add\n      swap1\n      dup2\n      mstore\n      0x20\n      add\n      0x00\n      keccak256\n        /* \"contracts/1_KipuBank.sol\":5759:5784  accounts[usuario].balance */\n      0x00\n      add\n      sload\n        /* \"contracts/1_KipuBank.sol\":5752:5784  return accounts[usuario].balance */\n      swap1\n      pop\n        /* \"contracts/1_KipuBank.sol\":5602:5791  function getBalance(address usuario) external view returns (uint256) {... */\n      swap2\n      swap1\n      pop\n      jump\t// out\n        /* \"contracts/1_KipuBank.sol\":1491:1523  uint256 public s_withdrawCounter */\n    tag_54:\n      sload(0x03)\n      dup2\n      jump\t// out\n        /* \"contracts/1_KipuBank.sol\":4611:4724  function _updateVault(address usuario, uint256 monto) private {... */\n    tag_65:\n        /* \"contracts/1_KipuBank.sol\":4712:4717  monto */\n      dup1\n        /* \"contracts/1_KipuBank.sol\":4683:4691  accounts */\n      0x00\n        /* \"contracts/1_KipuBank.sol\":4683:4700  accounts[usuario] */\n      dup1\n        /* \"contracts/1_KipuBank.sol\":4692:4699  usuario */\n      dup5\n        /* \"contracts/1_KipuBank.sol\":4683:4700  accounts[usuario] */\n      0xffffffffffffffffffffffffffffffffffffffff\n      and\n      0xffffffffffffffffffffffffffffffffffffffff\n      and\n      dup2\n      mstore\n      0x20\n      add\n      swap1\n      dup2\n      mstore\n      0x20\n      add\n      0x00\n      keccak256\n        /* \"contracts/1_KipuBank.sol\":4683:4708  accounts[usuario].balance */\n      0x00\n      add\n      0x00\n        /* \"contracts/1_KipuBank.sol\":4683:4717  accounts[usuario].balance += monto */\n      dup3\n      dup3\n      sload\n      tag_98\n      swap2\n      swap1\n      tag_59\n      jump\t// in\n    tag_98:\n      swap3\n      pop\n      pop\n      dup2\n      swap1\n      sstore\n      pop\n        /* \"contracts/1_KipuBank.sol\":4611:4724  function _updateVault(address usuario, uint256 monto) private {... */\n      pop\n      pop\n      jump\t// out\n        /* \"#utility.yul\":7:82   */\n    tag_99:\n        /* \"#utility.yul\":40:46   */\n      0x00\n        /* \"#utility.yul\":73:75   */\n      0x40\n        /* \"#utility.yul\":67:76   */\n      mload\n        /* \"#utility.yul\":57:76   */\n      swap1\n      pop\n        /* \"#utility.yul\":7:82   */\n      swap1\n      jump\t// out\n        /* \"#utility.yul\":88:205   */\n    tag_100:\n        /* \"#utility.yul\":197:198   */\n      0x00\n        /* \"#utility.yul\":194:195   */\n      dup1\n        /* \"#utility.yul\":187:199   */\n      revert\n        /* \"#utility.yul\":211:328   */\n    tag_101:\n        /* \"#utility.yul\":320:321   */\n      0x00\n        /* \"#utility.yul\":317:318   */\n      dup1\n        /* \"#utility.yul\":310:322   */\n      revert\n        /* \"#utility.yul\":334:451   */\n    tag_102:\n        /* \"#utility.yul\":443:444   */\n      0x00\n        /* \"#utility.yul\":440:441   */\n      dup1\n        /* \"#utility.yul\":433:445   */\n      revert\n        /* \"#utility.yul\":457:574   */\n    tag_103:\n        /* \"#utility.yul\":566:567   */\n      0x00\n        /* \"#utility.yul\":563:564   */\n      dup1\n        /* \"#utility.yul\":556:568   */\n      revert\n        /* \"#utility.yul\":580:682   */\n    tag_104:\n        /* \"#utility.yul\":621:627   */\n      0x00\n        /* \"#utility.yul\":672:674   */\n      0x1f\n        /* \"#utility.yul\":668:675   */\n      not\n        /* \"#utility.yul\":663:665   */\n      0x1f\n        /* \"#utility.yul\":656:661   */\n      dup4\n        /* \"#utility.yul\":652:666   */\n      add\n        /* \"#utility.yul\":648:676   */\n      and\n        /* \"#utility.yul\":638:676   */\n      swap1\n      pop\n        /* \"#utility.yul\":580:682   */\n      swap2\n      swap1\n      pop\n      jump\t// out\n        /* \"#utility.yul\":688:868   */\n    tag_105:\n        /* \"#utility.yul\":736:813   */\n      0x4e487b7100000000000000000000000000000000000000000000000000000000\n        /* \"#utility.yul\":733:734   */\n      0x00\n        /* \"#utility.yul\":726:814   */\n      mstore\n        /* \"#utility.yul\":833:837   */\n      0x41\n        /* \"#utility.yul\":830:831   */\n      0x04\n        /* \"#utility.yul\":823:838   */\n      mstore\n        /* \"#utility.yul\":857:861   */\n      0x24\n        /* \"#utility.yul\":854:855   */\n      0x00\n        /* \"#utility.yul\":847:862   */\n      revert\n        /* \"#utility.yul\":874:1155   */\n    tag_106:\n        /* \"#utility.yul\":957:984   */\n      tag_152\n        /* \"#utility.yul\":979:983   */\n      dup3\n        /* \"#utility.yul\":957:984   */\n      tag_104\n      jump\t// in\n    tag_152:\n        /* \"#utility.yul\":949:955   */\n      dup2\n        /* \"#utility.yul\":945:985   */\n      add\n        /* \"#utility.yul\":1087:1093   */\n      dup2\n        /* \"#utility.yul\":1075:1085   */\n      dup2\n        /* \"#utility.yul\":1072:1094   */\n      lt\n        /* \"#utility.yul\":1051:1069   */\n      0xffffffffffffffff\n        /* \"#utility.yul\":1039:1049   */\n      dup3\n        /* \"#utility.yul\":1036:1070   */\n      gt\n        /* \"#utility.yul\":1033:1095   */\n      or\n        /* \"#utility.yul\":1030:1118   */\n      iszero\n      tag_153\n      jumpi\n        /* \"#utility.yul\":1098:1116   */\n      tag_154\n      tag_105\n      jump\t// in\n    tag_154:\n        /* \"#utility.yul\":1030:1118   */\n    tag_153:\n        /* \"#utility.yul\":1138:1148   */\n      dup1\n        /* \"#utility.yul\":1134:1136   */\n      0x40\n        /* \"#utility.yul\":1127:1149   */\n      mstore\n        /* \"#utility.yul\":917:1155   */\n      pop\n        /* \"#utility.yul\":874:1155   */\n      pop\n      pop\n      jump\t// out\n        /* \"#utility.yul\":1161:1290   */\n    tag_107:\n        /* \"#utility.yul\":1195:1201   */\n      0x00\n        /* \"#utility.yul\":1222:1242   */\n      tag_156\n      tag_99\n      jump\t// in\n    tag_156:\n        /* \"#utility.yul\":1212:1242   */\n      swap1\n      pop\n        /* \"#utility.yul\":1251:1284   */\n      tag_157\n        /* \"#utility.yul\":1279:1283   */\n      dup3\n        /* \"#utility.yul\":1271:1277   */\n      dup3\n        /* \"#utility.yul\":1251:1284   */\n      tag_106\n      jump\t// in\n    tag_157:\n        /* \"#utility.yul\":1161:1290   */\n      swap2\n      swap1\n      pop\n      jump\t// out\n        /* \"#utility.yul\":1296:1604   */\n    tag_108:\n        /* \"#utility.yul\":1358:1362   */\n      0x00\n        /* \"#utility.yul\":1448:1466   */\n      0xffffffffffffffff\n        /* \"#utility.yul\":1440:1446   */\n      dup3\n        /* \"#utility.yul\":1437:1467   */\n      gt\n        /* \"#utility.yul\":1434:1490   */\n      iszero\n      tag_159\n      jumpi\n        /* \"#utility.yul\":1470:1488   */\n      tag_160\n      tag_105\n      jump\t// in\n    tag_160:\n        /* \"#utility.yul\":1434:1490   */\n    tag_159:\n        /* \"#utility.yul\":1508:1537   */\n      tag_161\n        /* \"#utility.yul\":1530:1536   */\n      dup3\n        /* \"#utility.yul\":1508:1537   */\n      tag_104\n      jump\t// in\n    tag_161:\n        /* \"#utility.yul\":1500:1537   */\n      swap1\n      pop\n        /* \"#utility.yul\":1592:1596   */\n      0x20\n        /* \"#utility.yul\":1586:1590   */\n      dup2\n        /* \"#utility.yul\":1582:1597   */\n      add\n        /* \"#utility.yul\":1574:1597   */\n      swap1\n      pop\n        /* \"#utility.yul\":1296:1604   */\n      swap2\n      swap1\n      pop\n      jump\t// out\n        /* \"#utility.yul\":1610:1758   */\n    tag_109:\n        /* \"#utility.yul\":1708:1714   */\n      dup3\n        /* \"#utility.yul\":1703:1706   */\n      dup2\n        /* \"#utility.yul\":1698:1701   */\n      dup4\n        /* \"#utility.yul\":1685:1715   */\n      calldatacopy\n        /* \"#utility.yul\":1749:1750   */\n      0x00\n        /* \"#utility.yul\":1740:1746   */\n      dup4\n        /* \"#utility.yul\":1735:1738   */\n      dup4\n        /* \"#utility.yul\":1731:1747   */\n      add\n        /* \"#utility.yul\":1724:1751   */\n      mstore\n        /* \"#utility.yul\":1610:1758   */\n      pop\n      pop\n      pop\n      jump\t// out\n        /* \"#utility.yul\":1764:2189   */\n    tag_110:\n        /* \"#utility.yul\":1842:1847   */\n      0x00\n        /* \"#utility.yul\":1867:1933   */\n      tag_164\n        /* \"#utility.yul\":1883:1932   */\n      tag_165\n        /* \"#utility.yul\":1925:1931   */\n      dup5\n        /* \"#utility.yul\":1883:1932   */\n      tag_108\n      jump\t// in\n    tag_165:\n        /* \"#utility.yul\":1867:1933   */\n      tag_107\n      jump\t// in\n    tag_164:\n        /* \"#utility.yul\":1858:1933   */\n      swap1\n      pop\n        /* \"#utility.yul\":1956:1962   */\n      dup3\n        /* \"#utility.yul\":1949:1954   */\n      dup2\n        /* \"#utility.yul\":1942:1963   */\n      mstore\n        /* \"#utility.yul\":1994:1998   */\n      0x20\n        /* \"#utility.yul\":1987:1992   */\n      dup2\n        /* \"#utility.yul\":1983:1999   */\n      add\n        /* \"#utility.yul\":2032:2035   */\n      dup5\n        /* \"#utility.yul\":2023:2029   */\n      dup5\n        /* \"#utility.yul\":2018:2021   */\n      dup5\n        /* \"#utility.yul\":2014:2030   */\n      add\n        /* \"#utility.yul\":2011:2036   */\n      gt\n        /* \"#utility.yul\":2008:2120   */\n      iszero\n      tag_166\n      jumpi\n        /* \"#utility.yul\":2039:2118   */\n      tag_167\n      tag_103\n      jump\t// in\n    tag_167:\n        /* \"#utility.yul\":2008:2120   */\n    tag_166:\n        /* \"#utility.yul\":2129:2183   */\n      tag_168\n        /* \"#utility.yul\":2176:2182   */\n      dup5\n        /* \"#utility.yul\":2171:2174   */\n      dup3\n        /* \"#utility.yul\":2166:2169   */\n      dup6\n        /* \"#utility.yul\":2129:2183   */\n      tag_109\n      jump\t// in\n    tag_168:\n        /* \"#utility.yul\":1848:2189   */\n      pop\n        /* \"#utility.yul\":1764:2189   */\n      swap4\n      swap3\n      pop\n      pop\n      pop\n      jump\t// out\n        /* \"#utility.yul\":2209:2549   */\n    tag_111:\n        /* \"#utility.yul\":2265:2270   */\n      0x00\n        /* \"#utility.yul\":2314:2317   */\n      dup3\n        /* \"#utility.yul\":2307:2311   */\n      0x1f\n        /* \"#utility.yul\":2299:2305   */\n      dup4\n        /* \"#utility.yul\":2295:2312   */\n      add\n        /* \"#utility.yul\":2291:2318   */\n      slt\n        /* \"#utility.yul\":2281:2403   */\n      tag_170\n      jumpi\n        /* \"#utility.yul\":2322:2401   */\n      tag_171\n      tag_102\n      jump\t// in\n    tag_171:\n        /* \"#utility.yul\":2281:2403   */\n    tag_170:\n        /* \"#utility.yul\":2439:2445   */\n      dup2\n        /* \"#utility.yul\":2426:2446   */\n      calldataload\n        /* \"#utility.yul\":2464:2543   */\n      tag_172\n        /* \"#utility.yul\":2539:2542   */\n      dup5\n        /* \"#utility.yul\":2531:2537   */\n      dup3\n        /* \"#utility.yul\":2524:2528   */\n      0x20\n        /* \"#utility.yul\":2516:2522   */\n      dup7\n        /* \"#utility.yul\":2512:2529   */\n      add\n        /* \"#utility.yul\":2464:2543   */\n      tag_110\n      jump\t// in\n    tag_172:\n        /* \"#utility.yul\":2455:2543   */\n      swap2\n      pop\n        /* \"#utility.yul\":2271:2549   */\n      pop\n        /* \"#utility.yul\":2209:2549   */\n      swap3\n      swap2\n      pop\n      pop\n      jump\t// out\n        /* \"#utility.yul\":2555:3389   */\n    tag_15:\n        /* \"#utility.yul\":2643:2649   */\n      0x00\n        /* \"#utility.yul\":2651:2657   */\n      dup1\n        /* \"#utility.yul\":2700:2702   */\n      0x40\n        /* \"#utility.yul\":2688:2697   */\n      dup4\n        /* \"#utility.yul\":2679:2686   */\n      dup6\n        /* \"#utility.yul\":2675:2698   */\n      sub\n        /* \"#utility.yul\":2671:2703   */\n      slt\n        /* \"#utility.yul\":2668:2787   */\n      iszero\n      tag_174\n      jumpi\n        /* \"#utility.yul\":2706:2785   */\n      tag_175\n      tag_100\n      jump\t// in\n    tag_175:\n        /* \"#utility.yul\":2668:2787   */\n    tag_174:\n        /* \"#utility.yul\":2854:2855   */\n      0x00\n        /* \"#utility.yul\":2843:2852   */\n      dup4\n        /* \"#utility.yul\":2839:2856   */\n      add\n        /* \"#utility.yul\":2826:2857   */\n      calldataload\n        /* \"#utility.yul\":2884:2902   */\n      0xffffffffffffffff\n        /* \"#utility.yul\":2876:2882   */\n      dup2\n        /* \"#utility.yul\":2873:2903   */\n      gt\n        /* \"#utility.yul\":2870:2987   */\n      iszero\n      tag_176\n      jumpi\n        /* \"#utility.yul\":2906:2985   */\n      tag_177\n      tag_101\n      jump\t// in\n    tag_177:\n        /* \"#utility.yul\":2870:2987   */\n    tag_176:\n        /* \"#utility.yul\":3011:3074   */\n      tag_178\n        /* \"#utility.yul\":3066:3073   */\n      dup6\n        /* \"#utility.yul\":3057:3063   */\n      dup3\n        /* \"#utility.yul\":3046:3055   */\n      dup7\n        /* \"#utility.yul\":3042:3064   */\n      add\n        /* \"#utility.yul\":3011:3074   */\n      tag_111\n      jump\t// in\n    tag_178:\n        /* \"#utility.yul\":3001:3074   */\n      swap3\n      pop\n        /* \"#utility.yul\":2797:3084   */\n      pop\n        /* \"#utility.yul\":3151:3153   */\n      0x20\n        /* \"#utility.yul\":3140:3149   */\n      dup4\n        /* \"#utility.yul\":3136:3154   */\n      add\n        /* \"#utility.yul\":3123:3155   */\n      calldataload\n        /* \"#utility.yul\":3182:3200   */\n      0xffffffffffffffff\n        /* \"#utility.yul\":3174:3180   */\n      dup2\n        /* \"#utility.yul\":3171:3201   */\n      gt\n        /* \"#utility.yul\":3168:3285   */\n      iszero\n      tag_179\n      jumpi\n        /* \"#utility.yul\":3204:3283   */\n      tag_180\n      tag_101\n      jump\t// in\n    tag_180:\n        /* \"#utility.yul\":3168:3285   */\n    tag_179:\n        /* \"#utility.yul\":3309:3372   */\n      tag_181\n        /* \"#utility.yul\":3364:3371   */\n      dup6\n        /* \"#utility.yul\":3355:3361   */\n      dup3\n        /* \"#utility.yul\":3344:3353   */\n      dup7\n        /* \"#utility.yul\":3340:3362   */\n      add\n        /* \"#utility.yul\":3309:3372   */\n      tag_111\n      jump\t// in\n    tag_181:\n        /* \"#utility.yul\":3299:3372   */\n      swap2\n      pop\n        /* \"#utility.yul\":3094:3382   */\n      pop\n        /* \"#utility.yul\":2555:3389   */\n      swap3\n      pop\n      swap3\n      swap1\n      pop\n      jump\t// out\n        /* \"#utility.yul\":3395:3472   */\n    tag_112:\n        /* \"#utility.yul\":3432:3439   */\n      0x00\n        /* \"#utility.yul\":3461:3466   */\n      dup2\n        /* \"#utility.yul\":3450:3466   */\n      swap1\n      pop\n        /* \"#utility.yul\":3395:3472   */\n      swap2\n      swap1\n      pop\n      jump\t// out\n        /* \"#utility.yul\":3478:3600   */\n    tag_113:\n        /* \"#utility.yul\":3551:3575   */\n      tag_184\n        /* \"#utility.yul\":3569:3574   */\n      dup2\n        /* \"#utility.yul\":3551:3575   */\n      tag_112\n      jump\t// in\n    tag_184:\n        /* \"#utility.yul\":3544:3549   */\n      dup2\n        /* \"#utility.yul\":3541:3576   */\n      eq\n        /* \"#utility.yul\":3531:3594   */\n      tag_185\n      jumpi\n        /* \"#utility.yul\":3590:3591   */\n      0x00\n        /* \"#utility.yul\":3587:3588   */\n      dup1\n        /* \"#utility.yul\":3580:3592   */\n      revert\n        /* \"#utility.yul\":3531:3594   */\n    tag_185:\n        /* \"#utility.yul\":3478:3600   */\n      pop\n      jump\t// out\n        /* \"#utility.yul\":3606:3745   */\n    tag_114:\n        /* \"#utility.yul\":3652:3657   */\n      0x00\n        /* \"#utility.yul\":3690:3696   */\n      dup2\n        /* \"#utility.yul\":3677:3697   */\n      calldataload\n        /* \"#utility.yul\":3668:3697   */\n      swap1\n      pop\n        /* \"#utility.yul\":3706:3739   */\n      tag_187\n        /* \"#utility.yul\":3733:3738   */\n      dup2\n        /* \"#utility.yul\":3706:3739   */\n      tag_113\n      jump\t// in\n    tag_187:\n        /* \"#utility.yul\":3606:3745   */\n      swap3\n      swap2\n      pop\n      pop\n      jump\t// out\n        /* \"#utility.yul\":3751:4080   */\n    tag_20:\n        /* \"#utility.yul\":3810:3816   */\n      0x00\n        /* \"#utility.yul\":3859:3861   */\n      0x20\n        /* \"#utility.yul\":3847:3856   */\n      dup3\n        /* \"#utility.yul\":3838:3845   */\n      dup5\n        /* \"#utility.yul\":3834:3857   */\n      sub\n        /* \"#utility.yul\":3830:3862   */\n      slt\n        /* \"#utility.yul\":3827:3946   */\n      iszero\n      tag_189\n      jumpi\n        /* \"#utility.yul\":3865:3944   */\n      tag_190\n      tag_100\n      jump\t// in\n    tag_190:\n        /* \"#utility.yul\":3827:3946   */\n    tag_189:\n        /* \"#utility.yul\":3985:3986   */\n      0x00\n        /* \"#utility.yul\":4010:4063   */\n      tag_191\n        /* \"#utility.yul\":4055:4062   */\n      dup5\n        /* \"#utility.yul\":4046:4052   */\n      dup3\n        /* \"#utility.yul\":4035:4044   */\n      dup6\n        /* \"#utility.yul\":4031:4053   */\n      add\n        /* \"#utility.yul\":4010:4063   */\n      tag_114\n      jump\t// in\n    tag_191:\n        /* \"#utility.yul\":4000:4063   */\n      swap2\n      pop\n        /* \"#utility.yul\":3956:4073   */\n      pop\n        /* \"#utility.yul\":3751:4080   */\n      swap3\n      swap2\n      pop\n      pop\n      jump\t// out\n        /* \"#utility.yul\":4086:4204   */\n    tag_115:\n        /* \"#utility.yul\":4173:4197   */\n      tag_193\n        /* \"#utility.yul\":4191:4196   */\n      dup2\n        /* \"#utility.yul\":4173:4197   */\n      tag_112\n      jump\t// in\n    tag_193:\n        /* \"#utility.yul\":4168:4171   */\n      dup3\n        /* \"#utility.yul\":4161:4198   */\n      mstore\n        /* \"#utility.yul\":4086:4204   */\n      pop\n      pop\n      jump\t// out\n        /* \"#utility.yul\":4210:4432   */\n    tag_26:\n        /* \"#utility.yul\":4303:4307   */\n      0x00\n        /* \"#utility.yul\":4341:4343   */\n      0x20\n        /* \"#utility.yul\":4330:4339   */\n      dup3\n        /* \"#utility.yul\":4326:4344   */\n      add\n        /* \"#utility.yul\":4318:4344   */\n      swap1\n      pop\n        /* \"#utility.yul\":4354:4425   */\n      tag_195\n        /* \"#utility.yul\":4422:4423   */\n      0x00\n        /* \"#utility.yul\":4411:4420   */\n      dup4\n        /* \"#utility.yul\":4407:4424   */\n      add\n        /* \"#utility.yul\":4398:4404   */\n      dup5\n        /* \"#utility.yul\":4354:4425   */\n      tag_115\n      jump\t// in\n    tag_195:\n        /* \"#utility.yul\":4210:4432   */\n      swap3\n      swap2\n      pop\n      pop\n      jump\t// out\n        /* \"#utility.yul\":4438:4564   */\n    tag_116:\n        /* \"#utility.yul\":4475:4482   */\n      0x00\n        /* \"#utility.yul\":4515:4557   */\n      0xffffffffffffffffffffffffffffffffffffffff\n        /* \"#utility.yul\":4508:4513   */\n      dup3\n        /* \"#utility.yul\":4504:4558   */\n      and\n        /* \"#utility.yul\":4493:4558   */\n      swap1\n      pop\n        /* \"#utility.yul\":4438:4564   */\n      swap2\n      swap1\n      pop\n      jump\t// out\n        /* \"#utility.yul\":4570:4666   */\n    tag_117:\n        /* \"#utility.yul\":4607:4614   */\n      0x00\n        /* \"#utility.yul\":4636:4660   */\n      tag_198\n        /* \"#utility.yul\":4654:4659   */\n      dup3\n        /* \"#utility.yul\":4636:4660   */\n      tag_116\n      jump\t// in\n    tag_198:\n        /* \"#utility.yul\":4625:4660   */\n      swap1\n      pop\n        /* \"#utility.yul\":4570:4666   */\n      swap2\n      swap1\n      pop\n      jump\t// out\n        /* \"#utility.yul\":4672:4790   */\n    tag_118:\n        /* \"#utility.yul\":4759:4783   */\n      tag_200\n        /* \"#utility.yul\":4777:4782   */\n      dup2\n        /* \"#utility.yul\":4759:4783   */\n      tag_117\n      jump\t// in\n    tag_200:\n        /* \"#utility.yul\":4754:4757   */\n      dup3\n        /* \"#utility.yul\":4747:4784   */\n      mstore\n        /* \"#utility.yul\":4672:4790   */\n      pop\n      pop\n      jump\t// out\n        /* \"#utility.yul\":4796:5018   */\n    tag_31:\n        /* \"#utility.yul\":4889:4893   */\n      0x00\n        /* \"#utility.yul\":4927:4929   */\n      0x20\n        /* \"#utility.yul\":4916:4925   */\n      dup3\n        /* \"#utility.yul\":4912:4930   */\n      add\n        /* \"#utility.yul\":4904:4930   */\n      swap1\n      pop\n        /* \"#utility.yul\":4940:5011   */\n      tag_202\n        /* \"#utility.yul\":5008:5009   */\n      0x00\n        /* \"#utility.yul\":4997:5006   */\n      dup4\n        /* \"#utility.yul\":4993:5010   */\n      add\n        /* \"#utility.yul\":4984:4990   */\n      dup5\n        /* \"#utility.yul\":4940:5011   */\n      tag_118\n      jump\t// in\n    tag_202:\n        /* \"#utility.yul\":4796:5018   */\n      swap3\n      swap2\n      pop\n      pop\n      jump\t// out\n        /* \"#utility.yul\":5024:5146   */\n    tag_119:\n        /* \"#utility.yul\":5097:5121   */\n      tag_204\n        /* \"#utility.yul\":5115:5120   */\n      dup2\n        /* \"#utility.yul\":5097:5121   */\n      tag_117\n      jump\t// in\n    tag_204:\n        /* \"#utility.yul\":5090:5095   */\n      dup2\n        /* \"#utility.yul\":5087:5122   */\n      eq\n        /* \"#utility.yul\":5077:5140   */\n      tag_205\n      jumpi\n        /* \"#utility.yul\":5136:5137   */\n      0x00\n        /* \"#utility.yul\":5133:5134   */\n      dup1\n        /* \"#utility.yul\":5126:5138   */\n      revert\n        /* \"#utility.yul\":5077:5140   */\n    tag_205:\n        /* \"#utility.yul\":5024:5146   */\n      pop\n      jump\t// out\n        /* \"#utility.yul\":5152:5291   */\n    tag_120:\n        /* \"#utility.yul\":5198:5203   */\n      0x00\n        /* \"#utility.yul\":5236:5242   */\n      dup2\n        /* \"#utility.yul\":5223:5243   */\n      calldataload\n        /* \"#utility.yul\":5214:5243   */\n      swap1\n      pop\n        /* \"#utility.yul\":5252:5285   */\n      tag_207\n        /* \"#utility.yul\":5279:5284   */\n      dup2\n        /* \"#utility.yul\":5252:5285   */\n      tag_119\n      jump\t// in\n    tag_207:\n        /* \"#utility.yul\":5152:5291   */\n      swap3\n      swap2\n      pop\n      pop\n      jump\t// out\n        /* \"#utility.yul\":5297:5626   */\n    tag_49:\n        /* \"#utility.yul\":5356:5362   */\n      0x00\n        /* \"#utility.yul\":5405:5407   */\n      0x20\n        /* \"#utility.yul\":5393:5402   */\n      dup3\n        /* \"#utility.yul\":5384:5391   */\n      dup5\n        /* \"#utility.yul\":5380:5403   */\n      sub\n        /* \"#utility.yul\":5376:5408   */\n      slt\n        /* \"#utility.yul\":5373:5492   */\n      iszero\n      tag_209\n      jumpi\n        /* \"#utility.yul\":5411:5490   */\n      tag_210\n      tag_100\n      jump\t// in\n    tag_210:\n        /* \"#utility.yul\":5373:5492   */\n    tag_209:\n        /* \"#utility.yul\":5531:5532   */\n      0x00\n        /* \"#utility.yul\":5556:5609   */\n      tag_211\n        /* \"#utility.yul\":5601:5608   */\n      dup5\n        /* \"#utility.yul\":5592:5598   */\n      dup3\n        /* \"#utility.yul\":5581:5590   */\n      dup6\n        /* \"#utility.yul\":5577:5599   */\n      add\n        /* \"#utility.yul\":5556:5609   */\n      tag_120\n      jump\t// in\n    tag_211:\n        /* \"#utility.yul\":5546:5609   */\n      swap2\n      pop\n        /* \"#utility.yul\":5502:5619   */\n      pop\n        /* \"#utility.yul\":5297:5626   */\n      swap3\n      swap2\n      pop\n      pop\n      jump\t// out\n        /* \"#utility.yul\":5632:5812   */\n    tag_121:\n        /* \"#utility.yul\":5680:5757   */\n      0x4e487b7100000000000000000000000000000000000000000000000000000000\n        /* \"#utility.yul\":5677:5678   */\n      0x00\n        /* \"#utility.yul\":5670:5758   */\n      mstore\n        /* \"#utility.yul\":5777:5781   */\n      0x11\n        /* \"#utility.yul\":5774:5775   */\n      0x04\n        /* \"#utility.yul\":5767:5782   */\n      mstore\n        /* \"#utility.yul\":5801:5805   */\n      0x24\n        /* \"#utility.yul\":5798:5799   */\n      0x00\n        /* \"#utility.yul\":5791:5806   */\n      revert\n        /* \"#utility.yul\":5818:6009   */\n    tag_59:\n        /* \"#utility.yul\":5858:5861   */\n      0x00\n        /* \"#utility.yul\":5877:5897   */\n      tag_214\n        /* \"#utility.yul\":5895:5896   */\n      dup3\n        /* \"#utility.yul\":5877:5897   */\n      tag_112\n      jump\t// in\n    tag_214:\n        /* \"#utility.yul\":5872:5897   */\n      swap2\n      pop\n        /* \"#utility.yul\":5911:5931   */\n      tag_215\n        /* \"#utility.yul\":5929:5930   */\n      dup4\n        /* \"#utility.yul\":5911:5931   */\n      tag_112\n      jump\t// in\n    tag_215:\n        /* \"#utility.yul\":5906:5931   */\n      swap3\n      pop\n        /* \"#utility.yul\":5954:5955   */\n      dup3\n        /* \"#utility.yul\":5951:5952   */\n      dup3\n        /* \"#utility.yul\":5947:5956   */\n      add\n        /* \"#utility.yul\":5940:5956   */\n      swap1\n      pop\n        /* \"#utility.yul\":5975:5978   */\n      dup1\n        /* \"#utility.yul\":5972:5973   */\n      dup3\n        /* \"#utility.yul\":5969:5979   */\n      gt\n        /* \"#utility.yul\":5966:6002   */\n      iszero\n      tag_216\n      jumpi\n        /* \"#utility.yul\":5982:6000   */\n      tag_217\n      tag_121\n      jump\t// in\n    tag_217:\n        /* \"#utility.yul\":5966:6002   */\n    tag_216:\n        /* \"#utility.yul\":5818:6009   */\n      swap3\n      swap2\n      pop\n      pop\n      jump\t// out\n        /* \"#utility.yul\":6015:6114   */\n    tag_122:\n        /* \"#utility.yul\":6067:6073   */\n      0x00\n        /* \"#utility.yul\":6101:6106   */\n      dup2\n        /* \"#utility.yul\":6095:6107   */\n      mload\n        /* \"#utility.yul\":6085:6107   */\n      swap1\n      pop\n        /* \"#utility.yul\":6015:6114   */\n      swap2\n      swap1\n      pop\n      jump\t// out\n        /* \"#utility.yul\":6120:6300   */\n    tag_123:\n        /* \"#utility.yul\":6168:6245   */\n      0x4e487b7100000000000000000000000000000000000000000000000000000000\n        /* \"#utility.yul\":6165:6166   */\n      0x00\n        /* \"#utility.yul\":6158:6246   */\n      mstore\n        /* \"#utility.yul\":6265:6269   */\n      0x22\n        /* \"#utility.yul\":6262:6263   */\n      0x04\n        /* \"#utility.yul\":6255:6270   */\n      mstore\n        /* \"#utility.yul\":6289:6293   */\n      0x24\n        /* \"#utility.yul\":6286:6287   */\n      0x00\n        /* \"#utility.yul\":6279:6294   */\n      revert\n        /* \"#utility.yul\":6306:6626   */\n    tag_124:\n        /* \"#utility.yul\":6350:6356   */\n      0x00\n        /* \"#utility.yul\":6387:6388   */\n      0x02\n        /* \"#utility.yul\":6381:6385   */\n      dup3\n        /* \"#utility.yul\":6377:6389   */\n      div\n        /* \"#utility.yul\":6367:6389   */\n      swap1\n      pop\n        /* \"#utility.yul\":6434:6435   */\n      0x01\n        /* \"#utility.yul\":6428:6432   */\n      dup3\n        /* \"#utility.yul\":6424:6436   */\n      and\n        /* \"#utility.yul\":6455:6473   */\n      dup1\n        /* \"#utility.yul\":6445:6526   */\n      tag_221\n      jumpi\n        /* \"#utility.yul\":6511:6515   */\n      0x7f\n        /* \"#utility.yul\":6503:6509   */\n      dup3\n        /* \"#utility.yul\":6499:6516   */\n      and\n        /* \"#utility.yul\":6489:6516   */\n      swap2\n      pop\n        /* \"#utility.yul\":6445:6526   */\n    tag_221:\n        /* \"#utility.yul\":6573:6575   */\n      0x20\n        /* \"#utility.yul\":6565:6571   */\n      dup3\n        /* \"#utility.yul\":6562:6576   */\n      lt\n        /* \"#utility.yul\":6542:6560   */\n      dup2\n        /* \"#utility.yul\":6539:6577   */\n      sub\n        /* \"#utility.yul\":6536:6620   */\n      tag_222\n      jumpi\n        /* \"#utility.yul\":6592:6610   */\n      tag_223\n      tag_123\n      jump\t// in\n    tag_223:\n        /* \"#utility.yul\":6536:6620   */\n    tag_222:\n        /* \"#utility.yul\":6357:6626   */\n      pop\n        /* \"#utility.yul\":6306:6626   */\n      swap2\n      swap1\n      pop\n      jump\t// out\n        /* \"#utility.yul\":6632:6773   */\n    tag_125:\n        /* \"#utility.yul\":6681:6685   */\n      0x00\n        /* \"#utility.yul\":6704:6707   */\n      dup2\n        /* \"#utility.yul\":6696:6707   */\n      swap1\n      pop\n        /* \"#utility.yul\":6727:6730   */\n      dup2\n        /* \"#utility.yul\":6724:6725   */\n      0x00\n        /* \"#utility.yul\":6717:6731   */\n      mstore\n        /* \"#utility.yul\":6761:6765   */\n      0x20\n        /* \"#utility.yul\":6758:6759   */\n      0x00\n        /* \"#utility.yul\":6748:6766   */\n      keccak256\n        /* \"#utility.yul\":6740:6766   */\n      swap1\n      pop\n        /* \"#utility.yul\":6632:6773   */\n      swap2\n      swap1\n      pop\n      jump\t// out\n        /* \"#utility.yul\":6779:6872   */\n    tag_126:\n        /* \"#utility.yul\":6816:6822   */\n      0x00\n        /* \"#utility.yul\":6863:6865   */\n      0x20\n        /* \"#utility.yul\":6858:6860   */\n      0x1f\n        /* \"#utility.yul\":6851:6856   */\n      dup4\n        /* \"#utility.yul\":6847:6861   */\n      add\n        /* \"#utility.yul\":6843:6866   */\n      div\n        /* \"#utility.yul\":6833:6866   */\n      swap1\n      pop\n        /* \"#utility.yul\":6779:6872   */\n      swap2\n      swap1\n      pop\n      jump\t// out\n        /* \"#utility.yul\":6878:6985   */\n    tag_127:\n        /* \"#utility.yul\":6922:6930   */\n      0x00\n        /* \"#utility.yul\":6972:6977   */\n      dup3\n        /* \"#utility.yul\":6966:6970   */\n      dup3\n        /* \"#utility.yul\":6962:6978   */\n      shl\n        /* \"#utility.yul\":6941:6978   */\n      swap1\n      pop\n        /* \"#utility.yul\":6878:6985   */\n      swap3\n      swap2\n      pop\n      pop\n      jump\t// out\n        /* \"#utility.yul\":6991:7384   */\n    tag_128:\n        /* \"#utility.yul\":7060:7066   */\n      0x00\n        /* \"#utility.yul\":7110:7111   */\n      0x08\n        /* \"#utility.yul\":7098:7108   */\n      dup4\n        /* \"#utility.yul\":7094:7112   */\n      mul\n        /* \"#utility.yul\":7133:7230   */\n      tag_228\n        /* \"#utility.yul\":7163:7229   */\n      0xffffffffffffffffffffffffffffffffffffffffffffffffffffffffffffffff\n        /* \"#utility.yul\":7152:7161   */\n      dup3\n        /* \"#utility.yul\":7133:7230   */\n      tag_127\n      jump\t// in\n    tag_228:\n        /* \"#utility.yul\":7251:7290   */\n      tag_229\n        /* \"#utility.yul\":7281:7289   */\n      dup7\n        /* \"#utility.yul\":7270:7279   */\n      dup4\n        /* \"#utility.yul\":7251:7290   */\n      tag_127\n      jump\t// in\n    tag_229:\n        /* \"#utility.yul\":7239:7290   */\n      swap6\n      pop\n        /* \"#utility.yul\":7323:7327   */\n      dup1\n        /* \"#utility.yul\":7319:7328   */\n      not\n        /* \"#utility.yul\":7312:7317   */\n      dup5\n        /* \"#utility.yul\":7308:7329   */\n      and\n        /* \"#utility.yul\":7299:7329   */\n      swap4\n      pop\n        /* \"#utility.yul\":7372:7376   */\n      dup1\n        /* \"#utility.yul\":7362:7370   */\n      dup7\n        /* \"#utility.yul\":7358:7377   */\n      and\n        /* \"#utility.yul\":7351:7356   */\n      dup5\n        /* \"#utility.yul\":7348:7378   */\n      or\n        /* \"#utility.yul\":7338:7378   */\n      swap3\n      pop\n        /* \"#utility.yul\":7067:7384   */\n      pop\n      pop\n        /* \"#utility.yul\":6991:7384   */\n      swap4\n      swap3\n      pop\n      pop\n      pop\n      jump\t// out\n        /* \"#utility.yul\":7390:7450   */\n    tag_129:\n        /* \"#utility.yul\":7418:7421   */\n      0x00\n        /* \"#utility.yul\":7439:7444   */\n      dup2\n        /* \"#utility.yul\":7432:7444   */\n      swap1\n      pop\n        /* \"#utility.yul\":7390:7450   */\n      swap2\n      swap1\n      pop\n      jump\t// out\n        /* \"#utility.yul\":7456:7598   */\n    tag_130:\n        /* \"#utility.yul\":7506:7515   */\n      0x00\n        /* \"#utility.yul\":7539:7592   */\n      tag_232\n        /* \"#utility.yul\":7557:7591   */\n      tag_233\n        /* \"#utility.yul\":7566:7590   */\n      tag_234\n        /* \"#utility.yul\":7584:7589   */\n      dup5\n        /* \"#utility.yul\":7566:7590   */\n      tag_112\n      jump\t// in\n    tag_234:\n        /* \"#utility.yul\":7557:7591   */\n      tag_129\n      jump\t// in\n    tag_233:\n        /* \"#utility.yul\":7539:7592   */\n      tag_112\n      jump\t// in\n    tag_232:\n        /* \"#utility.yul\":7526:7592   */\n      swap1\n      pop\n        /* \"#utility.yul\":7456:7598   */\n      swap2\n      swap1\n      pop\n      jump\t// out\n        /* \"#utility.yul\":7604:7679   */\n    tag_131:\n        /* \"#utility.yul\":7647:7650   */\n      0x00\n        /* \"#utility.yul\":7668:7673   */\n      dup2\n        /* \"#utility.yul\":7661:7673   */\n      swap1\n      pop\n        /* \"#utility.yul\":7604:7679   */\n      swap2\n      swap1\n      pop\n      jump\t// out\n        /* \"#utility.yul\":7685:7954   */\n    tag_132:\n        /* \"#utility.yul\":7795:7834   */\n      tag_237\n        /* \"#utility.yul\":7826:7833   */\n      dup4\n        /* \"#utility.yul\":7795:7834   */\n      tag_130\n      jump\t// in\n    tag_237:\n        /* \"#utility.yul\":7856:7947   */\n      tag_238\n        /* \"#utility.yul\":7905:7946   */\n      tag_239\n        /* \"#utility.yul\":7929:7945   */\n      dup3\n        /* \"#utility.yul\":7905:7946   */\n      tag_131\n      jump\t// in\n    tag_239:\n        /* \"#utility.yul\":7897:7903   */\n      dup5\n        /* \"#utility.yul\":7890:7894   */\n      dup5\n        /* \"#utility.yul\":7884:7895   */\n      sload\n        /* \"#utility.yul\":7856:7947   */\n      tag_128\n      jump\t// in\n    tag_238:\n        /* \"#utility.yul\":7850:7854   */\n      dup3\n        /* \"#utility.yul\":7843:7948   */\n      sstore\n        /* \"#utility.yul\":7761:7954   */\n      pop\n        /* \"#utility.yul\":7685:7954   */\n      pop\n      pop\n      pop\n      jump\t// out\n        /* \"#utility.yul\":7960:8033   */\n    tag_133:\n        /* \"#utility.yul\":8005:8008   */\n      0x00\n        /* \"#utility.yul\":7960:8033   */\n      swap1\n      jump\t// out\n        /* \"#utility.yul\":8039:8228   */\n    tag_134:\n        /* \"#utility.yul\":8116:8148   */\n      tag_242\n      tag_133\n      jump\t// in\n    tag_242:\n        /* \"#utility.yul\":8157:8222   */\n      tag_243\n        /* \"#utility.yul\":8215:8221   */\n      dup2\n        /* \"#utility.yul\":8207:8213   */\n      dup5\n        /* \"#utility.yul\":8201:8205   */\n      dup5\n        /* \"#utility.yul\":8157:8222   */\n      tag_132\n      jump\t// in\n    tag_243:\n        /* \"#utility.yul\":8092:8228   */\n      pop\n        /* \"#utility.yul\":8039:8228   */\n      pop\n      pop\n      jump\t// out\n        /* \"#utility.yul\":8234:8420   */\n    tag_135:\n        /* \"#utility.yul\":8294:8414   */\n    tag_245:\n        /* \"#utility.yul\":8311:8314   */\n      dup2\n        /* \"#utility.yul\":8304:8309   */\n      dup2\n        /* \"#utility.yul\":8301:8315   */\n      lt\n        /* \"#utility.yul\":8294:8414   */\n      iszero\n      tag_247\n      jumpi\n        /* \"#utility.yul\":8365:8404   */\n      tag_248\n        /* \"#utility.yul\":8402:8403   */\n      0x00\n        /* \"#utility.yul\":8395:8400   */\n      dup3\n        /* \"#utility.yul\":8365:8404   */\n      tag_134\n      jump\t// in\n    tag_248:\n        /* \"#utility.yul\":8338:8339   */\n      0x01\n        /* \"#utility.yul\":8331:8336   */\n      dup2\n        /* \"#utility.yul\":8327:8340   */\n      add\n        /* \"#utility.yul\":8318:8340   */\n      swap1\n      pop\n        /* \"#utility.yul\":8294:8414   */\n      jump(tag_245)\n    tag_247:\n        /* \"#utility.yul\":8234:8420   */\n      pop\n      pop\n      jump\t// out\n        /* \"#utility.yul\":8426:8969   */\n    tag_136:\n        /* \"#utility.yul\":8527:8529   */\n      0x1f\n        /* \"#utility.yul\":8522:8525   */\n      dup3\n        /* \"#utility.yul\":8519:8530   */\n      gt\n        /* \"#utility.yul\":8516:8962   */\n      iszero\n      tag_250\n      jumpi\n        /* \"#utility.yul\":8561:8599   */\n      tag_251\n        /* \"#utility.yul\":8593:8598   */\n      dup2\n        /* \"#utility.yul\":8561:8599   */\n      tag_125\n      jump\t// in\n    tag_251:\n        /* \"#utility.yul\":8645:8674   */\n      tag_252\n        /* \"#utility.yul\":8663:8673   */\n      dup5\n        /* \"#utility.yul\":8645:8674   */\n      tag_126\n      jump\t// in\n    tag_252:\n        /* \"#utility.yul\":8635:8643   */\n      dup2\n        /* \"#utility.yul\":8631:8675   */\n      add\n        /* \"#utility.yul\":8828:8830   */\n      0x20\n        /* \"#utility.yul\":8816:8826   */\n      dup6\n        /* \"#utility.yul\":8813:8831   */\n      lt\n        /* \"#utility.yul\":8810:8859   */\n      iszero\n      tag_253\n      jumpi\n        /* \"#utility.yul\":8849:8857   */\n      dup2\n        /* \"#utility.yul\":8834:8857   */\n      swap1\n      pop\n        /* \"#utility.yul\":8810:8859   */\n    tag_253:\n        /* \"#utility.yul\":8872:8952   */\n      tag_254\n        /* \"#utility.yul\":8928:8950   */\n      tag_255\n        /* \"#utility.yul\":8946:8949   */\n      dup6\n        /* \"#utility.yul\":8928:8950   */\n      tag_126\n      jump\t// in\n    tag_255:\n        /* \"#utility.yul\":8918:8926   */\n      dup4\n        /* \"#utility.yul\":8914:8951   */\n      add\n        /* \"#utility.yul\":8901:8912   */\n      dup3\n        /* \"#utility.yul\":8872:8952   */\n      tag_135\n      jump\t// in\n    tag_254:\n        /* \"#utility.yul\":8531:8962   */\n      pop\n      pop\n        /* \"#utility.yul\":8516:8962   */\n    tag_250:\n        /* \"#utility.yul\":8426:8969   */\n      pop\n      pop\n      pop\n      jump\t// out\n        /* \"#utility.yul\":8975:9092   */\n    tag_137:\n        /* \"#utility.yul\":9029:9037   */\n      0x00\n        /* \"#utility.yul\":9079:9084   */\n      dup3\n        /* \"#utility.yul\":9073:9077   */\n      dup3\n        /* \"#utility.yul\":9069:9085   */\n      shr\n        /* \"#utility.yul\":9048:9085   */\n      swap1\n      pop\n        /* \"#utility.yul\":8975:9092   */\n      swap3\n      swap2\n      pop\n      pop\n      jump\t// out\n        /* \"#utility.yul\":9098:9267   */\n    tag_138:\n        /* \"#utility.yul\":9142:9148   */\n      0x00\n        /* \"#utility.yul\":9175:9226   */\n      tag_258\n        /* \"#utility.yul\":9223:9224   */\n      0x00\n        /* \"#utility.yul\":9219:9225   */\n      not\n        /* \"#utility.yul\":9211:9216   */\n      dup5\n        /* \"#utility.yul\":9208:9209   */\n      0x08\n        /* \"#utility.yul\":9204:9217   */\n      mul\n        /* \"#utility.yul\":9175:9226   */\n      tag_137\n      jump\t// in\n    tag_258:\n        /* \"#utility.yul\":9171:9227   */\n      not\n        /* \"#utility.yul\":9256:9260   */\n      dup1\n        /* \"#utility.yul\":9250:9254   */\n      dup4\n        /* \"#utility.yul\":9246:9261   */\n      and\n        /* \"#utility.yul\":9236:9261   */\n      swap2\n      pop\n        /* \"#utility.yul\":9149:9267   */\n      pop\n        /* \"#utility.yul\":9098:9267   */\n      swap3\n      swap2\n      pop\n      pop\n      jump\t// out\n        /* \"#utility.yul\":9272:9567   */\n    tag_139:\n        /* \"#utility.yul\":9348:9352   */\n      0x00\n        /* \"#utility.yul\":9494:9523   */\n      tag_260\n        /* \"#utility.yul\":9519:9522   */\n      dup4\n        /* \"#utility.yul\":9513:9517   */\n      dup4\n        /* \"#utility.yul\":9494:9523   */\n      tag_138\n      jump\t// in\n    tag_260:\n        /* \"#utility.yul\":9486:9523   */\n      swap2\n      pop\n        /* \"#utility.yul\":9556:9559   */\n      dup3\n        /* \"#utility.yul\":9553:9554   */\n      0x02\n        /* \"#utility.yul\":9549:9560   */\n      mul\n        /* \"#utility.yul\":9543:9547   */\n      dup3\n        /* \"#utility.yul\":9540:9561   */\n      or\n        /* \"#utility.yul\":9532:9561   */\n      swap1\n      pop\n        /* \"#utility.yul\":9272:9567   */\n      swap3\n      swap2\n      pop\n      pop\n      jump\t// out\n        /* \"#utility.yul\":9572:10967   */\n    tag_62:\n        /* \"#utility.yul\":9689:9726   */\n      tag_262\n        /* \"#utility.yul\":9722:9725   */\n      dup3\n        /* \"#utility.yul\":9689:9726   */\n      tag_122\n      jump\t// in\n    tag_262:\n        /* \"#utility.yul\":9791:9809   */\n      0xffffffffffffffff\n        /* \"#utility.yul\":9783:9789   */\n      dup2\n        /* \"#utility.yul\":9780:9810   */\n      gt\n        /* \"#utility.yul\":9777:9833   */\n      iszero\n      tag_263\n      jumpi\n        /* \"#utility.yul\":9813:9831   */\n      tag_264\n      tag_105\n      jump\t// in\n    tag_264:\n        /* \"#utility.yul\":9777:9833   */\n    tag_263:\n        /* \"#utility.yul\":9857:9895   */\n      tag_265\n        /* \"#utility.yul\":9889:9893   */\n      dup3\n        /* \"#utility.yul\":9883:9894   */\n      sload\n        /* \"#utility.yul\":9857:9895   */\n      tag_124\n      jump\t// in\n    tag_265:\n        /* \"#utility.yul\":9942:10009   */\n      tag_266\n        /* \"#utility.yul\":10002:10008   */\n      dup3\n        /* \"#utility.yul\":9994:10000   */\n      dup3\n        /* \"#utility.yul\":9988:9992   */\n      dup6\n        /* \"#utility.yul\":9942:10009   */\n      tag_136\n      jump\t// in\n    tag_266:\n        /* \"#utility.yul\":10036:10037   */\n      0x00\n        /* \"#utility.yul\":10060:10064   */\n      0x20\n        /* \"#utility.yul\":10047:10064   */\n      swap1\n      pop\n        /* \"#utility.yul\":10092:10094   */\n      0x1f\n        /* \"#utility.yul\":10084:10090   */\n      dup4\n        /* \"#utility.yul\":10081:10095   */\n      gt\n        /* \"#utility.yul\":10109:10110   */\n      0x01\n        /* \"#utility.yul\":10104:10722   */\n      dup2\n      eq\n      tag_268\n      jumpi\n        /* \"#utility.yul\":10766:10767   */\n      0x00\n        /* \"#utility.yul\":10783:10789   */\n      dup5\n        /* \"#utility.yul\":10780:10857   */\n      iszero\n      tag_269\n      jumpi\n        /* \"#utility.yul\":10832:10841   */\n      dup3\n        /* \"#utility.yul\":10827:10830   */\n      dup8\n        /* \"#utility.yul\":10823:10842   */\n      add\n        /* \"#utility.yul\":10817:10843   */\n      mload\n        /* \"#utility.yul\":10808:10843   */\n      swap1\n      pop\n        /* \"#utility.yul\":10780:10857   */\n    tag_269:\n        /* \"#utility.yul\":10883:10950   */\n      tag_270\n        /* \"#utility.yul\":10943:10949   */\n      dup6\n        /* \"#utility.yul\":10936:10941   */\n      dup3\n        /* \"#utility.yul\":10883:10950   */\n      tag_139\n      jump\t// in\n    tag_270:\n        /* \"#utility.yul\":10877:10881   */\n      dup7\n        /* \"#utility.yul\":10870:10951   */\n      sstore\n        /* \"#utility.yul\":10739:10961   */\n      pop\n        /* \"#utility.yul\":10074:10961   */\n      jump(tag_267)\n        /* \"#utility.yul\":10104:10722   */\n    tag_268:\n        /* \"#utility.yul\":10156:10160   */\n      0x1f\n        /* \"#utility.yul\":10152:10161   */\n      not\n        /* \"#utility.yul\":10144:10150   */\n      dup5\n        /* \"#utility.yul\":10140:10162   */\n      and\n        /* \"#utility.yul\":10190:10227   */\n      tag_271\n        /* \"#utility.yul\":10222:10226   */\n      dup7\n        /* \"#utility.yul\":10190:10227   */\n      tag_125\n      jump\t// in\n    tag_271:\n        /* \"#utility.yul\":10249:10250   */\n      0x00\n        /* \"#utility.yul\":10263:10471   */\n    tag_272:\n        /* \"#utility.yul\":10277:10284   */\n      dup3\n        /* \"#utility.yul\":10274:10275   */\n      dup2\n        /* \"#utility.yul\":10271:10285   */\n      lt\n        /* \"#utility.yul\":10263:10471   */\n      iszero\n      tag_274\n      jumpi\n        /* \"#utility.yul\":10356:10365   */\n      dup5\n        /* \"#utility.yul\":10351:10354   */\n      dup10\n        /* \"#utility.yul\":10347:10366   */\n      add\n        /* \"#utility.yul\":10341:10367   */\n      mload\n        /* \"#utility.yul\":10333:10339   */\n      dup3\n        /* \"#utility.yul\":10326:10368   */\n      sstore\n        /* \"#utility.yul\":10407:10408   */\n      0x01\n        /* \"#utility.yul\":10399:10405   */\n      dup3\n        /* \"#utility.yul\":10395:10409   */\n      add\n        /* \"#utility.yul\":10385:10409   */\n      swap2\n      pop\n        /* \"#utility.yul\":10454:10456   */\n      0x20\n        /* \"#utility.yul\":10443:10452   */\n      dup6\n        /* \"#utility.yul\":10439:10457   */\n      add\n        /* \"#utility.yul\":10426:10457   */\n      swap5\n      pop\n        /* \"#utility.yul\":10300:10304   */\n      0x20\n        /* \"#utility.yul\":10297:10298   */\n      dup2\n        /* \"#utility.yul\":10293:10305   */\n      add\n        /* \"#utility.yul\":10288:10305   */\n      swap1\n      pop\n        /* \"#utility.yul\":10263:10471   */\n      jump(tag_272)\n    tag_274:\n        /* \"#utility.yul\":10499:10505   */\n      dup7\n        /* \"#utility.yul\":10490:10497   */\n      dup4\n        /* \"#utility.yul\":10487:10506   */\n      lt\n        /* \"#utility.yul\":10484:10663   */\n      iszero\n      tag_275\n      jumpi\n        /* \"#utility.yul\":10557:10566   */\n      dup5\n        /* \"#utility.yul\":10552:10555   */\n      dup10\n        /* \"#utility.yul\":10548:10567   */\n      add\n        /* \"#utility.yul\":10542:10568   */\n      mload\n        /* \"#utility.yul\":10600:10648   */\n      tag_276\n        /* \"#utility.yul\":10642:10646   */\n      0x1f\n        /* \"#utility.yul\":10634:10640   */\n      dup10\n        /* \"#utility.yul\":10630:10647   */\n      and\n        /* \"#utility.yul\":10619:10628   */\n      dup3\n        /* \"#utility.yul\":10600:10648   */\n      tag_138\n      jump\t// in\n    tag_276:\n        /* \"#utility.yul\":10592:10598   */\n      dup4\n        /* \"#utility.yul\":10585:10649   */\n      sstore\n        /* \"#utility.yul\":10507:10663   */\n      pop\n        /* \"#utility.yul\":10484:10663   */\n    tag_275:\n        /* \"#utility.yul\":10709:10710   */\n      0x01\n        /* \"#utility.yul\":10705:10706   */\n      0x02\n        /* \"#utility.yul\":10697:10703   */\n      dup9\n        /* \"#utility.yul\":10693:10707   */\n      mul\n        /* \"#utility.yul\":10689:10711   */\n      add\n        /* \"#utility.yul\":10683:10687   */\n      dup9\n        /* \"#utility.yul\":10676:10712   */\n      sstore\n        /* \"#utility.yul\":10111:10722   */\n      pop\n      pop\n      pop\n        /* \"#utility.yul\":10074:10961   */\n    tag_267:\n      pop\n        /* \"#utility.yul\":9664:10967   */\n      pop\n      pop\n      pop\n        /* \"#utility.yul\":9572:10967   */\n      pop\n      pop\n      jump\t// out\n        /* \"#utility.yul\":10973:11206   */\n    tag_68:\n        /* \"#utility.yul\":11012:11015   */\n      0x00\n        /* \"#utility.yul\":11035:11059   */\n      tag_278\n        /* \"#utility.yul\":11053:11058   */\n      dup3\n        /* \"#utility.yul\":11035:11059   */\n      tag_112\n      jump\t// in\n    tag_278:\n        /* \"#utility.yul\":11026:11059   */\n      swap2\n      pop\n        /* \"#utility.yul\":11081:11147   */\n      0xffffffffffffffffffffffffffffffffffffffffffffffffffffffffffffffff\n        /* \"#utility.yul\":11074:11079   */\n      dup3\n        /* \"#utility.yul\":11071:11148   */\n      sub\n        /* \"#utility.yul\":11068:11171   */\n      tag_279\n      jumpi\n        /* \"#utility.yul\":11151:11169   */\n      tag_280\n      tag_121\n      jump\t// in\n    tag_280:\n        /* \"#utility.yul\":11068:11171   */\n    tag_279:\n        /* \"#utility.yul\":11198:11199   */\n      0x01\n        /* \"#utility.yul\":11191:11196   */\n      dup3\n        /* \"#utility.yul\":11187:11200   */\n      add\n        /* \"#utility.yul\":11180:11200   */\n      swap1\n      pop\n        /* \"#utility.yul\":10973:11206   */\n      swap2\n      swap1\n      pop\n      jump\t// out\n        /* \"#utility.yul\":11212:11406   */\n    tag_77:\n        /* \"#utility.yul\":11252:11256   */\n      0x00\n        /* \"#utility.yul\":11272:11292   */\n      tag_282\n        /* \"#utility.yul\":11290:11291   */\n      dup3\n        /* \"#utility.yul\":11272:11292   */\n      tag_112\n      jump\t// in\n    tag_282:\n        /* \"#utility.yul\":11267:11292   */\n      swap2\n      pop\n        /* \"#utility.yul\":11306:11326   */\n      tag_283\n        /* \"#utility.yul\":11324:11325   */\n      dup4\n        /* \"#utility.yul\":11306:11326   */\n      tag_112\n      jump\t// in\n    tag_283:\n        /* \"#utility.yul\":11301:11326   */\n      swap3\n      pop\n        /* \"#utility.yul\":11350:11351   */\n      dup3\n        /* \"#utility.yul\":11347:11348   */\n      dup3\n        /* \"#utility.yul\":11343:11352   */\n      sub\n        /* \"#utility.yul\":11335:11352   */\n      swap1\n      pop\n        /* \"#utility.yul\":11374:11375   */\n      dup2\n        /* \"#utility.yul\":11368:11372   */\n      dup2\n        /* \"#utility.yul\":11365:11376   */\n      gt\n        /* \"#utility.yul\":11362:11399   */\n      iszero\n      tag_284\n      jumpi\n        /* \"#utility.yul\":11379:11397   */\n      tag_285\n      tag_121\n      jump\t// in\n    tag_285:\n        /* \"#utility.yul\":11362:11399   */\n    tag_284:\n        /* \"#utility.yul\":11212:11406   */\n      swap3\n      swap2\n      pop\n      pop\n      jump\t// out\n        /* \"#utility.yul\":11412:11559   */\n    tag_140:\n        /* \"#utility.yul\":11513:11524   */\n      0x00\n        /* \"#utility.yul\":11550:11553   */\n      dup2\n        /* \"#utility.yul\":11535:11553   */\n      swap1\n      pop\n        /* \"#utility.yul\":11412:11559   */\n      swap3\n      swap2\n      pop\n      pop\n      jump\t// out\n        /* \"#utility.yul\":11565:11679   */\n    tag_141:\n      pop\n      jump\t// out\n        /* \"#utility.yul\":11685:12083   */\n    tag_142:\n        /* \"#utility.yul\":11844:11847   */\n      0x00\n        /* \"#utility.yul\":11865:11948   */\n      tag_289\n        /* \"#utility.yul\":11946:11947   */\n      0x00\n        /* \"#utility.yul\":11941:11944   */\n      dup4\n        /* \"#utility.yul\":11865:11948   */\n      tag_140\n      jump\t// in\n    tag_289:\n        /* \"#utility.yul\":11858:11948   */\n      swap2\n      pop\n        /* \"#utility.yul\":11957:12050   */\n      tag_290\n        /* \"#utility.yul\":12046:12049   */\n      dup3\n        /* \"#utility.yul\":11957:12050   */\n      tag_141\n      jump\t// in\n    tag_290:\n        /* \"#utility.yul\":12075:12076   */\n      0x00\n        /* \"#utility.yul\":12070:12073   */\n      dup3\n        /* \"#utility.yul\":12066:12077   */\n      add\n        /* \"#utility.yul\":12059:12077   */\n      swap1\n      pop\n        /* \"#utility.yul\":11685:12083   */\n      swap2\n      swap1\n      pop\n      jump\t// out\n        /* \"#utility.yul\":12089:12468   */\n    tag_81:\n        /* \"#utility.yul\":12273:12276   */\n      0x00\n        /* \"#utility.yul\":12295:12442   */\n      tag_292\n        /* \"#utility.yul\":12438:12441   */\n      dup3\n        /* \"#utility.yul\":12295:12442   */\n      tag_142\n      jump\t// in\n    tag_292:\n        /* \"#utility.yul\":12288:12442   */\n      swap2\n      pop\n        /* \"#utility.yul\":12459:12462   */\n      dup2\n        /* \"#utility.yul\":12452:12462   */\n      swap1\n      pop\n        /* \"#utility.yul\":12089:12468   */\n      swap2\n      swap1\n      pop\n      jump\t// out\n\n    auxdata: 0xa2646970667358221220e59285e8e782f2a09d92c0c389145fbeb50643e74f2bfd8fd5ae5d5a80d7576964736f6c634300081a0033\n}\n",
				"bytecode": {
					"linkReferences": {},
					"object": "60e060405267016345785d8a000060a09081525034801561001e575f80fd5b5060405161128a38038061128a833981810160405281019061004091906100b9565b3373ffffffffffffffffffffffffffffffffffffffff1660808173ffffffffffffffffffffffffffffffffffffffff16815250508060c08181525050506100e4565b5f80fd5b5f819050919050565b61009881610086565b81146100a2575f80fd5b50565b5f815190506100b38161008f565b92915050565b5f602082840312156100ce576100cd610082565b5b5f6100db848285016100a5565b91505092915050565b60805160a05160c0516111676101235f395f818161029f0152818161080e015261090401525f8181610528015261078701525f6107ab01526111675ff3fe608060405260043610610090575f3560e01c8063d0e30db011610058578063d0e30db014610156578063e43fb75f14610160578063f6687af71461018a578063f8b2cb4f146101b4578063fb80212c146101f057610090565b806319289287146100945780632e1a7d4d146100b057806335270e28146100d857806338c22aef14610102578063b62238381461012c575b5f80fd5b6100ae60048036038101906100a99190610b9a565b61021a565b005b3480156100bb575f80fd5b506100d660048036038101906100d19190610c43565b610445565b005b3480156100e3575f80fd5b506100ec610785565b6040516100f99190610c7d565b60405180910390f35b34801561010d575f80fd5b506101166107a9565b6040516101239190610cd5565b60405180910390f35b348015610137575f80fd5b506101406107cd565b60405161014d9190610c7d565b60405180910390f35b61015e6107d3565b005b34801561016b575f80fd5b506101746108fc565b6040516101819190610c7d565b60405180910390f35b348015610195575f80fd5b5061019e610902565b6040516101ab9190610c7d565b60405180910390f35b3480156101bf575f80fd5b506101da60048036038101906101d59190610d18565b610926565b6040516101e79190610c7d565b60405180910390f35b3480156101fb575f80fd5b506102046109ef565b6040516102119190610c7d565b60405180910390f35b5f803373ffffffffffffffffffffffffffffffffffffffff1673ffffffffffffffffffffffffffffffffffffffff1681526020019081526020015f206003015f9054906101000a900460ff161561029d576040517f7845597700000000000000000000000000000000000000000000000000000000815260040160405180910390fd5b7f0000000000000000000000000000000000000000000000000000000000000000346004546102cc9190610d70565b1115610304576040517f97651d1e00000000000000000000000000000000000000000000000000000000815260040160405180910390fd5b60405180608001604052805f8152602001828152602001838152602001600115158152505f803373ffffffffffffffffffffffffffffffffffffffff1673ffffffffffffffffffffffffffffffffffffffff1681526020019081526020015f205f820151815f015560208201518160010190816103819190610fa7565b5060408201518160020190816103979190610fa7565b506060820151816003015f6101000a81548160ff0219169083151502179055509050506103c433346109f5565b3460045f8282546103d59190610d70565b9250508190555060025f8154809291906103ee90611076565b91905055503373ffffffffffffffffffffffffffffffffffffffff167f2f91cfee4efcf1e8860273d9a24d031b028554299e93e18ff8a3ec3712fbf4ae346040516104399190610c7d565b60405180910390a25050565b60015f9054906101000a900460ff161561048b576040517fd67ab8e500000000000000000000000000000000000000000000000000000000815260040160405180910390fd5b6001805f6101000a81548160ff0219169083151502179055505f803373ffffffffffffffffffffffffffffffffffffffff1673ffffffffffffffffffffffffffffffffffffffff1681526020019081526020015f206003015f9054906101000a900460ff16610526576040517f566b044000000000000000000000000000000000000000000000000000000000815260040160405180910390fd5b7f0000000000000000000000000000000000000000000000000000000000000000811115610580576040517f9df6f29b00000000000000000000000000000000000000000000000000000000815260040160405180910390fd5b805f803373ffffffffffffffffffffffffffffffffffffffff1673ffffffffffffffffffffffffffffffffffffffff1681526020019081526020015f205f015410156105f8576040517f640858fb00000000000000000000000000000000000000000000000000000000815260040160405180910390fd5b805f803373ffffffffffffffffffffffffffffffffffffffff1673ffffffffffffffffffffffffffffffffffffffff1681526020019081526020015f205f015f82825461064591906110bd565b925050819055508060045f82825461065d91906110bd565b9250508190555060035f81548092919061067690611076565b91905055505f3373ffffffffffffffffffffffffffffffffffffffff16826040516106a09061111d565b5f6040518083038185875af1925050503d805f81146106da576040519150601f19603f3d011682016040523d82523d5f602084013e6106df565b606091505b505090508061071a576040517fbd6bfd0a00000000000000000000000000000000000000000000000000000000815260040160405180910390fd5b3373ffffffffffffffffffffffffffffffffffffffff167f925b6bd47038067d9f087d01bec4d4539c090b60cd50381d3b2733fc3b5aa466836040516107609190610c7d565b60405180910390a2505f60015f6101000a81548160ff02191690831515021790555050565b7f000000000000000000000000000000000000000000000000000000000000000081565b7f000000000000000000000000000000000000000000000000000000000000000081565b60025481565b5f340361080c576040517f7803844200000000000000000000000000000000000000000000000000000000815260040160405180910390fd5b7f00000000000000000000000000000000000000000000000000000000000000003460045461083b9190610d70565b1115610873576040517f97651d1e00000000000000000000000000000000000000000000000000000000815260040160405180910390fd5b61087d33346109f5565b3460045f82825461088e9190610d70565b9250508190555060025f8154809291906108a790611076565b91905055503373ffffffffffffffffffffffffffffffffffffffff167f2f91cfee4efcf1e8860273d9a24d031b028554299e93e18ff8a3ec3712fbf4ae346040516108f29190610c7d565b60405180910390a2565b60045481565b7f000000000000000000000000000000000000000000000000000000000000000081565b5f805f8373ffffffffffffffffffffffffffffffffffffffff1673ffffffffffffffffffffffffffffffffffffffff1681526020019081526020015f206003015f9054906101000a900460ff166109a9576040517f566b044000000000000000000000000000000000000000000000000000000000815260040160405180910390fd5b5f808373ffffffffffffffffffffffffffffffffffffffff1673ffffffffffffffffffffffffffffffffffffffff1681526020019081526020015f205f01549050919050565b60035481565b805f808473ffffffffffffffffffffffffffffffffffffffff1673ffffffffffffffffffffffffffffffffffffffff1681526020019081526020015f205f015f828254610a429190610d70565b925050819055505050565b5f604051905090565b5f80fd5b5f80fd5b5f80fd5b5f80fd5b5f601f19601f8301169050919050565b7f4e487b71000000000000000000000000000000000000000000000000000000005f52604160045260245ffd5b610aac82610a66565b810181811067ffffffffffffffff82111715610acb57610aca610a76565b5b80604052505050565b5f610add610a4d565b9050610ae98282610aa3565b919050565b5f67ffffffffffffffff821115610b0857610b07610a76565b5b610b1182610a66565b9050602081019050919050565b828183375f83830152505050565b5f610b3e610b3984610aee565b610ad4565b905082815260208101848484011115610b5a57610b59610a62565b5b610b65848285610b1e565b509392505050565b5f82601f830112610b8157610b80610a5e565b5b8135610b91848260208601610b2c565b91505092915050565b5f8060408385031215610bb057610baf610a56565b5b5f83013567ffffffffffffffff811115610bcd57610bcc610a5a565b5b610bd985828601610b6d565b925050602083013567ffffffffffffffff811115610bfa57610bf9610a5a565b5b610c0685828601610b6d565b9150509250929050565b5f819050919050565b610c2281610c10565b8114610c2c575f80fd5b50565b5f81359050610c3d81610c19565b92915050565b5f60208284031215610c5857610c57610a56565b5b5f610c6584828501610c2f565b91505092915050565b610c7781610c10565b82525050565b5f602082019050610c905f830184610c6e565b92915050565b5f73ffffffffffffffffffffffffffffffffffffffff82169050919050565b5f610cbf82610c96565b9050919050565b610ccf81610cb5565b82525050565b5f602082019050610ce85f830184610cc6565b92915050565b610cf781610cb5565b8114610d01575f80fd5b50565b5f81359050610d1281610cee565b92915050565b5f60208284031215610d2d57610d2c610a56565b5b5f610d3a84828501610d04565b91505092915050565b7f4e487b71000000000000000000000000000000000000000000000000000000005f52601160045260245ffd5b5f610d7a82610c10565b9150610d8583610c10565b9250828201905080821115610d9d57610d9c610d43565b5b92915050565b5f81519050919050565b7f4e487b71000000000000000000000000000000000000000000000000000000005f52602260045260245ffd5b5f6002820490506001821680610df157607f821691505b602082108103610e0457610e03610dad565b5b50919050565b5f819050815f5260205f209050919050565b5f6020601f8301049050919050565b5f82821b905092915050565b5f60088302610e667fffffffffffffffffffffffffffffffffffffffffffffffffffffffffffffffff82610e2b565b610e708683610e2b565b95508019841693508086168417925050509392505050565b5f819050919050565b5f610eab610ea6610ea184610c10565b610e88565b610c10565b9050919050565b5f819050919050565b610ec483610e91565b610ed8610ed082610eb2565b848454610e37565b825550505050565b5f90565b610eec610ee0565b610ef7818484610ebb565b505050565b5b81811015610f1a57610f0f5f82610ee4565b600181019050610efd565b5050565b601f821115610f5f57610f3081610e0a565b610f3984610e1c565b81016020851015610f48578190505b610f5c610f5485610e1c565b830182610efc565b50505b505050565b5f82821c905092915050565b5f610f7f5f1984600802610f64565b1980831691505092915050565b5f610f978383610f70565b9150826002028217905092915050565b610fb082610da3565b67ffffffffffffffff811115610fc957610fc8610a76565b5b610fd38254610dda565b610fde828285610f1e565b5f60209050601f83116001811461100f575f8415610ffd578287015190505b6110078582610f8c565b86555061106e565b601f19841661101d86610e0a565b5f5b828110156110445784890151825560018201915060208501945060208101905061101f565b86831015611061578489015161105d601f891682610f70565b8355505b6001600288020188555050505b505050505050565b5f61108082610c10565b91507fffffffffffffffffffffffffffffffffffffffffffffffffffffffffffffffff82036110b2576110b1610d43565b5b600182019050919050565b5f6110c782610c10565b91506110d283610c10565b92508282039050818111156110ea576110e9610d43565b5b92915050565b5f81905092915050565b50565b5f6111085f836110f0565b9150611113826110fa565b5f82019050919050565b5f611127826110fd565b915081905091905056fea2646970667358221220e59285e8e782f2a09d92c0c389145fbeb50643e74f2bfd8fd5ae5d5a80d7576964736f6c634300081a0033",
					"opcodes": "PUSH1 0xE0 PUSH1 0x40 MSTORE PUSH8 0x16345785D8A0000 PUSH1 0xA0 SWAP1 DUP2 MSTORE POP CALLVALUE DUP1 ISZERO PUSH2 0x1E JUMPI PUSH0 DUP1 REVERT JUMPDEST POP PUSH1 0x40 MLOAD PUSH2 0x128A CODESIZE SUB DUP1 PUSH2 0x128A DUP4 CODECOPY DUP2 DUP2 ADD PUSH1 0x40 MSTORE DUP2 ADD SWAP1 PUSH2 0x40 SWAP2 SWAP1 PUSH2 0xB9 JUMP JUMPDEST CALLER PUSH20 0xFFFFFFFFFFFFFFFFFFFFFFFFFFFFFFFFFFFFFFFF AND PUSH1 0x80 DUP2 PUSH20 0xFFFFFFFFFFFFFFFFFFFFFFFFFFFFFFFFFFFFFFFF AND DUP2 MSTORE POP POP DUP1 PUSH1 0xC0 DUP2 DUP2 MSTORE POP POP POP PUSH2 0xE4 JUMP JUMPDEST PUSH0 DUP1 REVERT JUMPDEST PUSH0 DUP2 SWAP1 POP SWAP2 SWAP1 POP JUMP JUMPDEST PUSH2 0x98 DUP2 PUSH2 0x86 JUMP JUMPDEST DUP2 EQ PUSH2 0xA2 JUMPI PUSH0 DUP1 REVERT JUMPDEST POP JUMP JUMPDEST PUSH0 DUP2 MLOAD SWAP1 POP PUSH2 0xB3 DUP2 PUSH2 0x8F JUMP JUMPDEST SWAP3 SWAP2 POP POP JUMP JUMPDEST PUSH0 PUSH1 0x20 DUP3 DUP5 SUB SLT ISZERO PUSH2 0xCE JUMPI PUSH2 0xCD PUSH2 0x82 JUMP JUMPDEST JUMPDEST PUSH0 PUSH2 0xDB DUP5 DUP3 DUP6 ADD PUSH2 0xA5 JUMP JUMPDEST SWAP2 POP POP SWAP3 SWAP2 POP POP JUMP JUMPDEST PUSH1 0x80 MLOAD PUSH1 0xA0 MLOAD PUSH1 0xC0 MLOAD PUSH2 0x1167 PUSH2 0x123 PUSH0 CODECOPY PUSH0 DUP2 DUP2 PUSH2 0x29F ADD MSTORE DUP2 DUP2 PUSH2 0x80E ADD MSTORE PUSH2 0x904 ADD MSTORE PUSH0 DUP2 DUP2 PUSH2 0x528 ADD MSTORE PUSH2 0x787 ADD MSTORE PUSH0 PUSH2 0x7AB ADD MSTORE PUSH2 0x1167 PUSH0 RETURN INVALID PUSH1 0x80 PUSH1 0x40 MSTORE PUSH1 0x4 CALLDATASIZE LT PUSH2 0x90 JUMPI PUSH0 CALLDATALOAD PUSH1 0xE0 SHR DUP1 PUSH4 0xD0E30DB0 GT PUSH2 0x58 JUMPI DUP1 PUSH4 0xD0E30DB0 EQ PUSH2 0x156 JUMPI DUP1 PUSH4 0xE43FB75F EQ PUSH2 0x160 JUMPI DUP1 PUSH4 0xF6687AF7 EQ PUSH2 0x18A JUMPI DUP1 PUSH4 0xF8B2CB4F EQ PUSH2 0x1B4 JUMPI DUP1 PUSH4 0xFB80212C EQ PUSH2 0x1F0 JUMPI PUSH2 0x90 JUMP JUMPDEST DUP1 PUSH4 0x19289287 EQ PUSH2 0x94 JUMPI DUP1 PUSH4 0x2E1A7D4D EQ PUSH2 0xB0 JUMPI DUP1 PUSH4 0x35270E28 EQ PUSH2 0xD8 JUMPI DUP1 PUSH4 0x38C22AEF EQ PUSH2 0x102 JUMPI DUP1 PUSH4 0xB6223838 EQ PUSH2 0x12C JUMPI JUMPDEST PUSH0 DUP1 REVERT JUMPDEST PUSH2 0xAE PUSH1 0x4 DUP1 CALLDATASIZE SUB DUP2 ADD SWAP1 PUSH2 0xA9 SWAP2 SWAP1 PUSH2 0xB9A JUMP JUMPDEST PUSH2 0x21A JUMP JUMPDEST STOP JUMPDEST CALLVALUE DUP1 ISZERO PUSH2 0xBB JUMPI PUSH0 DUP1 REVERT JUMPDEST POP PUSH2 0xD6 PUSH1 0x4 DUP1 CALLDATASIZE SUB DUP2 ADD SWAP1 PUSH2 0xD1 SWAP2 SWAP1 PUSH2 0xC43 JUMP JUMPDEST PUSH2 0x445 JUMP JUMPDEST STOP JUMPDEST CALLVALUE DUP1 ISZERO PUSH2 0xE3 JUMPI PUSH0 DUP1 REVERT JUMPDEST POP PUSH2 0xEC PUSH2 0x785 JUMP JUMPDEST PUSH1 0x40 MLOAD PUSH2 0xF9 SWAP2 SWAP1 PUSH2 0xC7D JUMP JUMPDEST PUSH1 0x40 MLOAD DUP1 SWAP2 SUB SWAP1 RETURN JUMPDEST CALLVALUE DUP1 ISZERO PUSH2 0x10D JUMPI PUSH0 DUP1 REVERT JUMPDEST POP PUSH2 0x116 PUSH2 0x7A9 JUMP JUMPDEST PUSH1 0x40 MLOAD PUSH2 0x123 SWAP2 SWAP1 PUSH2 0xCD5 JUMP JUMPDEST PUSH1 0x40 MLOAD DUP1 SWAP2 SUB SWAP1 RETURN JUMPDEST CALLVALUE DUP1 ISZERO PUSH2 0x137 JUMPI PUSH0 DUP1 REVERT JUMPDEST POP PUSH2 0x140 PUSH2 0x7CD JUMP JUMPDEST PUSH1 0x40 MLOAD PUSH2 0x14D SWAP2 SWAP1 PUSH2 0xC7D JUMP JUMPDEST PUSH1 0x40 MLOAD DUP1 SWAP2 SUB SWAP1 RETURN JUMPDEST PUSH2 0x15E PUSH2 0x7D3 JUMP JUMPDEST STOP JUMPDEST CALLVALUE DUP1 ISZERO PUSH2 0x16B JUMPI PUSH0 DUP1 REVERT JUMPDEST POP PUSH2 0x174 PUSH2 0x8FC JUMP JUMPDEST PUSH1 0x40 MLOAD PUSH2 0x181 SWAP2 SWAP1 PUSH2 0xC7D JUMP JUMPDEST PUSH1 0x40 MLOAD DUP1 SWAP2 SUB SWAP1 RETURN JUMPDEST CALLVALUE DUP1 ISZERO PUSH2 0x195 JUMPI PUSH0 DUP1 REVERT JUMPDEST POP PUSH2 0x19E PUSH2 0x902 JUMP JUMPDEST PUSH1 0x40 MLOAD PUSH2 0x1AB SWAP2 SWAP1 PUSH2 0xC7D JUMP JUMPDEST PUSH1 0x40 MLOAD DUP1 SWAP2 SUB SWAP1 RETURN JUMPDEST CALLVALUE DUP1 ISZERO PUSH2 0x1BF JUMPI PUSH0 DUP1 REVERT JUMPDEST POP PUSH2 0x1DA PUSH1 0x4 DUP1 CALLDATASIZE SUB DUP2 ADD SWAP1 PUSH2 0x1D5 SWAP2 SWAP1 PUSH2 0xD18 JUMP JUMPDEST PUSH2 0x926 JUMP JUMPDEST PUSH1 0x40 MLOAD PUSH2 0x1E7 SWAP2 SWAP1 PUSH2 0xC7D JUMP JUMPDEST PUSH1 0x40 MLOAD DUP1 SWAP2 SUB SWAP1 RETURN JUMPDEST CALLVALUE DUP1 ISZERO PUSH2 0x1FB JUMPI PUSH0 DUP1 REVERT JUMPDEST POP PUSH2 0x204 PUSH2 0x9EF JUMP JUMPDEST PUSH1 0x40 MLOAD PUSH2 0x211 SWAP2 SWAP1 PUSH2 0xC7D JUMP JUMPDEST PUSH1 0x40 MLOAD DUP1 SWAP2 SUB SWAP1 RETURN JUMPDEST PUSH0 DUP1 CALLER PUSH20 0xFFFFFFFFFFFFFFFFFFFFFFFFFFFFFFFFFFFFFFFF AND PUSH20 0xFFFFFFFFFFFFFFFFFFFFFFFFFFFFFFFFFFFFFFFF AND DUP2 MSTORE PUSH1 0x20 ADD SWAP1 DUP2 MSTORE PUSH1 0x20 ADD PUSH0 KECCAK256 PUSH1 0x3 ADD PUSH0 SWAP1 SLOAD SWAP1 PUSH2 0x100 EXP SWAP1 DIV PUSH1 0xFF AND ISZERO PUSH2 0x29D JUMPI PUSH1 0x40 MLOAD PUSH32 0x7845597700000000000000000000000000000000000000000000000000000000 DUP2 MSTORE PUSH1 0x4 ADD PUSH1 0x40 MLOAD DUP1 SWAP2 SUB SWAP1 REVERT JUMPDEST PUSH32 0x0 CALLVALUE PUSH1 0x4 SLOAD PUSH2 0x2CC SWAP2 SWAP1 PUSH2 0xD70 JUMP JUMPDEST GT ISZERO PUSH2 0x304 JUMPI PUSH1 0x40 MLOAD PUSH32 0x97651D1E00000000000000000000000000000000000000000000000000000000 DUP2 MSTORE PUSH1 0x4 ADD PUSH1 0x40 MLOAD DUP1 SWAP2 SUB SWAP1 REVERT JUMPDEST PUSH1 0x40 MLOAD DUP1 PUSH1 0x80 ADD PUSH1 0x40 MSTORE DUP1 PUSH0 DUP2 MSTORE PUSH1 0x20 ADD DUP3 DUP2 MSTORE PUSH1 0x20 ADD DUP4 DUP2 MSTORE PUSH1 0x20 ADD PUSH1 0x1 ISZERO ISZERO DUP2 MSTORE POP PUSH0 DUP1 CALLER PUSH20 0xFFFFFFFFFFFFFFFFFFFFFFFFFFFFFFFFFFFFFFFF AND PUSH20 0xFFFFFFFFFFFFFFFFFFFFFFFFFFFFFFFFFFFFFFFF AND DUP2 MSTORE PUSH1 0x20 ADD SWAP1 DUP2 MSTORE PUSH1 0x20 ADD PUSH0 KECCAK256 PUSH0 DUP3 ADD MLOAD DUP2 PUSH0 ADD SSTORE PUSH1 0x20 DUP3 ADD MLOAD DUP2 PUSH1 0x1 ADD SWAP1 DUP2 PUSH2 0x381 SWAP2 SWAP1 PUSH2 0xFA7 JUMP JUMPDEST POP PUSH1 0x40 DUP3 ADD MLOAD DUP2 PUSH1 0x2 ADD SWAP1 DUP2 PUSH2 0x397 SWAP2 SWAP1 PUSH2 0xFA7 JUMP JUMPDEST POP PUSH1 0x60 DUP3 ADD MLOAD DUP2 PUSH1 0x3 ADD PUSH0 PUSH2 0x100 EXP DUP2 SLOAD DUP2 PUSH1 0xFF MUL NOT AND SWAP1 DUP4 ISZERO ISZERO MUL OR SWAP1 SSTORE POP SWAP1 POP POP PUSH2 0x3C4 CALLER CALLVALUE PUSH2 0x9F5 JUMP JUMPDEST CALLVALUE PUSH1 0x4 PUSH0 DUP3 DUP3 SLOAD PUSH2 0x3D5 SWAP2 SWAP1 PUSH2 0xD70 JUMP JUMPDEST SWAP3 POP POP DUP2 SWAP1 SSTORE POP PUSH1 0x2 PUSH0 DUP2 SLOAD DUP1 SWAP3 SWAP2 SWAP1 PUSH2 0x3EE SWAP1 PUSH2 0x1076 JUMP JUMPDEST SWAP2 SWAP1 POP SSTORE POP CALLER PUSH20 0xFFFFFFFFFFFFFFFFFFFFFFFFFFFFFFFFFFFFFFFF AND PUSH32 0x2F91CFEE4EFCF1E8860273D9A24D031B028554299E93E18FF8A3EC3712FBF4AE CALLVALUE PUSH1 0x40 MLOAD PUSH2 0x439 SWAP2 SWAP1 PUSH2 0xC7D JUMP JUMPDEST PUSH1 0x40 MLOAD DUP1 SWAP2 SUB SWAP1 LOG2 POP POP JUMP JUMPDEST PUSH1 0x1 PUSH0 SWAP1 SLOAD SWAP1 PUSH2 0x100 EXP SWAP1 DIV PUSH1 0xFF AND ISZERO PUSH2 0x48B JUMPI PUSH1 0x40 MLOAD PUSH32 0xD67AB8E500000000000000000000000000000000000000000000000000000000 DUP2 MSTORE PUSH1 0x4 ADD PUSH1 0x40 MLOAD DUP1 SWAP2 SUB SWAP1 REVERT JUMPDEST PUSH1 0x1 DUP1 PUSH0 PUSH2 0x100 EXP DUP2 SLOAD DUP2 PUSH1 0xFF MUL NOT AND SWAP1 DUP4 ISZERO ISZERO MUL OR SWAP1 SSTORE POP PUSH0 DUP1 CALLER PUSH20 0xFFFFFFFFFFFFFFFFFFFFFFFFFFFFFFFFFFFFFFFF AND PUSH20 0xFFFFFFFFFFFFFFFFFFFFFFFFFFFFFFFFFFFFFFFF AND DUP2 MSTORE PUSH1 0x20 ADD SWAP1 DUP2 MSTORE PUSH1 0x20 ADD PUSH0 KECCAK256 PUSH1 0x3 ADD PUSH0 SWAP1 SLOAD SWAP1 PUSH2 0x100 EXP SWAP1 DIV PUSH1 0xFF AND PUSH2 0x526 JUMPI PUSH1 0x40 MLOAD PUSH32 0x566B044000000000000000000000000000000000000000000000000000000000 DUP2 MSTORE PUSH1 0x4 ADD PUSH1 0x40 MLOAD DUP1 SWAP2 SUB SWAP1 REVERT JUMPDEST PUSH32 0x0 DUP2 GT ISZERO PUSH2 0x580 JUMPI PUSH1 0x40 MLOAD PUSH32 0x9DF6F29B00000000000000000000000000000000000000000000000000000000 DUP2 MSTORE PUSH1 0x4 ADD PUSH1 0x40 MLOAD DUP1 SWAP2 SUB SWAP1 REVERT JUMPDEST DUP1 PUSH0 DUP1 CALLER PUSH20 0xFFFFFFFFFFFFFFFFFFFFFFFFFFFFFFFFFFFFFFFF AND PUSH20 0xFFFFFFFFFFFFFFFFFFFFFFFFFFFFFFFFFFFFFFFF AND DUP2 MSTORE PUSH1 0x20 ADD SWAP1 DUP2 MSTORE PUSH1 0x20 ADD PUSH0 KECCAK256 PUSH0 ADD SLOAD LT ISZERO PUSH2 0x5F8 JUMPI PUSH1 0x40 MLOAD PUSH32 0x640858FB00000000000000000000000000000000000000000000000000000000 DUP2 MSTORE PUSH1 0x4 ADD PUSH1 0x40 MLOAD DUP1 SWAP2 SUB SWAP1 REVERT JUMPDEST DUP1 PUSH0 DUP1 CALLER PUSH20 0xFFFFFFFFFFFFFFFFFFFFFFFFFFFFFFFFFFFFFFFF AND PUSH20 0xFFFFFFFFFFFFFFFFFFFFFFFFFFFFFFFFFFFFFFFF AND DUP2 MSTORE PUSH1 0x20 ADD SWAP1 DUP2 MSTORE PUSH1 0x20 ADD PUSH0 KECCAK256 PUSH0 ADD PUSH0 DUP3 DUP3 SLOAD PUSH2 0x645 SWAP2 SWAP1 PUSH2 0x10BD JUMP JUMPDEST SWAP3 POP POP DUP2 SWAP1 SSTORE POP DUP1 PUSH1 0x4 PUSH0 DUP3 DUP3 SLOAD PUSH2 0x65D SWAP2 SWAP1 PUSH2 0x10BD JUMP JUMPDEST SWAP3 POP POP DUP2 SWAP1 SSTORE POP PUSH1 0x3 PUSH0 DUP2 SLOAD DUP1 SWAP3 SWAP2 SWAP1 PUSH2 0x676 SWAP1 PUSH2 0x1076 JUMP JUMPDEST SWAP2 SWAP1 POP SSTORE POP PUSH0 CALLER PUSH20 0xFFFFFFFFFFFFFFFFFFFFFFFFFFFFFFFFFFFFFFFF AND DUP3 PUSH1 0x40 MLOAD PUSH2 0x6A0 SWAP1 PUSH2 0x111D JUMP JUMPDEST PUSH0 PUSH1 0x40 MLOAD DUP1 DUP4 SUB DUP2 DUP6 DUP8 GAS CALL SWAP3 POP POP POP RETURNDATASIZE DUP1 PUSH0 DUP2 EQ PUSH2 0x6DA JUMPI PUSH1 0x40 MLOAD SWAP2 POP PUSH1 0x1F NOT PUSH1 0x3F RETURNDATASIZE ADD AND DUP3 ADD PUSH1 0x40 MSTORE RETURNDATASIZE DUP3 MSTORE RETURNDATASIZE PUSH0 PUSH1 0x20 DUP5 ADD RETURNDATACOPY PUSH2 0x6DF JUMP JUMPDEST PUSH1 0x60 SWAP2 POP JUMPDEST POP POP SWAP1 POP DUP1 PUSH2 0x71A JUMPI PUSH1 0x40 MLOAD PUSH32 0xBD6BFD0A00000000000000000000000000000000000000000000000000000000 DUP2 MSTORE PUSH1 0x4 ADD PUSH1 0x40 MLOAD DUP1 SWAP2 SUB SWAP1 REVERT JUMPDEST CALLER PUSH20 0xFFFFFFFFFFFFFFFFFFFFFFFFFFFFFFFFFFFFFFFF AND PUSH32 0x925B6BD47038067D9F087D01BEC4D4539C090B60CD50381D3B2733FC3B5AA466 DUP4 PUSH1 0x40 MLOAD PUSH2 0x760 SWAP2 SWAP1 PUSH2 0xC7D JUMP JUMPDEST PUSH1 0x40 MLOAD DUP1 SWAP2 SUB SWAP1 LOG2 POP PUSH0 PUSH1 0x1 PUSH0 PUSH2 0x100 EXP DUP2 SLOAD DUP2 PUSH1 0xFF MUL NOT AND SWAP1 DUP4 ISZERO ISZERO MUL OR SWAP1 SSTORE POP POP JUMP JUMPDEST PUSH32 0x0 DUP2 JUMP JUMPDEST PUSH32 0x0 DUP2 JUMP JUMPDEST PUSH1 0x2 SLOAD DUP2 JUMP JUMPDEST PUSH0 CALLVALUE SUB PUSH2 0x80C JUMPI PUSH1 0x40 MLOAD PUSH32 0x7803844200000000000000000000000000000000000000000000000000000000 DUP2 MSTORE PUSH1 0x4 ADD PUSH1 0x40 MLOAD DUP1 SWAP2 SUB SWAP1 REVERT JUMPDEST PUSH32 0x0 CALLVALUE PUSH1 0x4 SLOAD PUSH2 0x83B SWAP2 SWAP1 PUSH2 0xD70 JUMP JUMPDEST GT ISZERO PUSH2 0x873 JUMPI PUSH1 0x40 MLOAD PUSH32 0x97651D1E00000000000000000000000000000000000000000000000000000000 DUP2 MSTORE PUSH1 0x4 ADD PUSH1 0x40 MLOAD DUP1 SWAP2 SUB SWAP1 REVERT JUMPDEST PUSH2 0x87D CALLER CALLVALUE PUSH2 0x9F5 JUMP JUMPDEST CALLVALUE PUSH1 0x4 PUSH0 DUP3 DUP3 SLOAD PUSH2 0x88E SWAP2 SWAP1 PUSH2 0xD70 JUMP JUMPDEST SWAP3 POP POP DUP2 SWAP1 SSTORE POP PUSH1 0x2 PUSH0 DUP2 SLOAD DUP1 SWAP3 SWAP2 SWAP1 PUSH2 0x8A7 SWAP1 PUSH2 0x1076 JUMP JUMPDEST SWAP2 SWAP1 POP SSTORE POP CALLER PUSH20 0xFFFFFFFFFFFFFFFFFFFFFFFFFFFFFFFFFFFFFFFF AND PUSH32 0x2F91CFEE4EFCF1E8860273D9A24D031B028554299E93E18FF8A3EC3712FBF4AE CALLVALUE PUSH1 0x40 MLOAD PUSH2 0x8F2 SWAP2 SWAP1 PUSH2 0xC7D JUMP JUMPDEST PUSH1 0x40 MLOAD DUP1 SWAP2 SUB SWAP1 LOG2 JUMP JUMPDEST PUSH1 0x4 SLOAD DUP2 JUMP JUMPDEST PUSH32 0x0 DUP2 JUMP JUMPDEST PUSH0 DUP1 PUSH0 DUP4 PUSH20 0xFFFFFFFFFFFFFFFFFFFFFFFFFFFFFFFFFFFFFFFF AND PUSH20 0xFFFFFFFFFFFFFFFFFFFFFFFFFFFFFFFFFFFFFFFF AND DUP2 MSTORE PUSH1 0x20 ADD SWAP1 DUP2 MSTORE PUSH1 0x20 ADD PUSH0 KECCAK256 PUSH1 0x3 ADD PUSH0 SWAP1 SLOAD SWAP1 PUSH2 0x100 EXP SWAP1 DIV PUSH1 0xFF AND PUSH2 0x9A9 JUMPI PUSH1 0x40 MLOAD PUSH32 0x566B044000000000000000000000000000000000000000000000000000000000 DUP2 MSTORE PUSH1 0x4 ADD PUSH1 0x40 MLOAD DUP1 SWAP2 SUB SWAP1 REVERT JUMPDEST PUSH0 DUP1 DUP4 PUSH20 0xFFFFFFFFFFFFFFFFFFFFFFFFFFFFFFFFFFFFFFFF AND PUSH20 0xFFFFFFFFFFFFFFFFFFFFFFFFFFFFFFFFFFFFFFFF AND DUP2 MSTORE PUSH1 0x20 ADD SWAP1 DUP2 MSTORE PUSH1 0x20 ADD PUSH0 KECCAK256 PUSH0 ADD SLOAD SWAP1 POP SWAP2 SWAP1 POP JUMP JUMPDEST PUSH1 0x3 SLOAD DUP2 JUMP JUMPDEST DUP1 PUSH0 DUP1 DUP5 PUSH20 0xFFFFFFFFFFFFFFFFFFFFFFFFFFFFFFFFFFFFFFFF AND PUSH20 0xFFFFFFFFFFFFFFFFFFFFFFFFFFFFFFFFFFFFFFFF AND DUP2 MSTORE PUSH1 0x20 ADD SWAP1 DUP2 MSTORE PUSH1 0x20 ADD PUSH0 KECCAK256 PUSH0 ADD PUSH0 DUP3 DUP3 SLOAD PUSH2 0xA42 SWAP2 SWAP1 PUSH2 0xD70 JUMP JUMPDEST SWAP3 POP POP DUP2 SWAP1 SSTORE POP POP POP JUMP JUMPDEST PUSH0 PUSH1 0x40 MLOAD SWAP1 POP SWAP1 JUMP JUMPDEST PUSH0 DUP1 REVERT JUMPDEST PUSH0 DUP1 REVERT JUMPDEST PUSH0 DUP1 REVERT JUMPDEST PUSH0 DUP1 REVERT JUMPDEST PUSH0 PUSH1 0x1F NOT PUSH1 0x1F DUP4 ADD AND SWAP1 POP SWAP2 SWAP1 POP JUMP JUMPDEST PUSH32 0x4E487B7100000000000000000000000000000000000000000000000000000000 PUSH0 MSTORE PUSH1 0x41 PUSH1 0x4 MSTORE PUSH1 0x24 PUSH0 REVERT JUMPDEST PUSH2 0xAAC DUP3 PUSH2 0xA66 JUMP JUMPDEST DUP2 ADD DUP2 DUP2 LT PUSH8 0xFFFFFFFFFFFFFFFF DUP3 GT OR ISZERO PUSH2 0xACB JUMPI PUSH2 0xACA PUSH2 0xA76 JUMP JUMPDEST JUMPDEST DUP1 PUSH1 0x40 MSTORE POP POP POP JUMP JUMPDEST PUSH0 PUSH2 0xADD PUSH2 0xA4D JUMP JUMPDEST SWAP1 POP PUSH2 0xAE9 DUP3 DUP3 PUSH2 0xAA3 JUMP JUMPDEST SWAP2 SWAP1 POP JUMP JUMPDEST PUSH0 PUSH8 0xFFFFFFFFFFFFFFFF DUP3 GT ISZERO PUSH2 0xB08 JUMPI PUSH2 0xB07 PUSH2 0xA76 JUMP JUMPDEST JUMPDEST PUSH2 0xB11 DUP3 PUSH2 0xA66 JUMP JUMPDEST SWAP1 POP PUSH1 0x20 DUP2 ADD SWAP1 POP SWAP2 SWAP1 POP JUMP JUMPDEST DUP3 DUP2 DUP4 CALLDATACOPY PUSH0 DUP4 DUP4 ADD MSTORE POP POP POP JUMP JUMPDEST PUSH0 PUSH2 0xB3E PUSH2 0xB39 DUP5 PUSH2 0xAEE JUMP JUMPDEST PUSH2 0xAD4 JUMP JUMPDEST SWAP1 POP DUP3 DUP2 MSTORE PUSH1 0x20 DUP2 ADD DUP5 DUP5 DUP5 ADD GT ISZERO PUSH2 0xB5A JUMPI PUSH2 0xB59 PUSH2 0xA62 JUMP JUMPDEST JUMPDEST PUSH2 0xB65 DUP5 DUP3 DUP6 PUSH2 0xB1E JUMP JUMPDEST POP SWAP4 SWAP3 POP POP POP JUMP JUMPDEST PUSH0 DUP3 PUSH1 0x1F DUP4 ADD SLT PUSH2 0xB81 JUMPI PUSH2 0xB80 PUSH2 0xA5E JUMP JUMPDEST JUMPDEST DUP2 CALLDATALOAD PUSH2 0xB91 DUP5 DUP3 PUSH1 0x20 DUP7 ADD PUSH2 0xB2C JUMP JUMPDEST SWAP2 POP POP SWAP3 SWAP2 POP POP JUMP JUMPDEST PUSH0 DUP1 PUSH1 0x40 DUP4 DUP6 SUB SLT ISZERO PUSH2 0xBB0 JUMPI PUSH2 0xBAF PUSH2 0xA56 JUMP JUMPDEST JUMPDEST PUSH0 DUP4 ADD CALLDATALOAD PUSH8 0xFFFFFFFFFFFFFFFF DUP2 GT ISZERO PUSH2 0xBCD JUMPI PUSH2 0xBCC PUSH2 0xA5A JUMP JUMPDEST JUMPDEST PUSH2 0xBD9 DUP6 DUP3 DUP7 ADD PUSH2 0xB6D JUMP JUMPDEST SWAP3 POP POP PUSH1 0x20 DUP4 ADD CALLDATALOAD PUSH8 0xFFFFFFFFFFFFFFFF DUP2 GT ISZERO PUSH2 0xBFA JUMPI PUSH2 0xBF9 PUSH2 0xA5A JUMP JUMPDEST JUMPDEST PUSH2 0xC06 DUP6 DUP3 DUP7 ADD PUSH2 0xB6D JUMP JUMPDEST SWAP2 POP POP SWAP3 POP SWAP3 SWAP1 POP JUMP JUMPDEST PUSH0 DUP2 SWAP1 POP SWAP2 SWAP1 POP JUMP JUMPDEST PUSH2 0xC22 DUP2 PUSH2 0xC10 JUMP JUMPDEST DUP2 EQ PUSH2 0xC2C JUMPI PUSH0 DUP1 REVERT JUMPDEST POP JUMP JUMPDEST PUSH0 DUP2 CALLDATALOAD SWAP1 POP PUSH2 0xC3D DUP2 PUSH2 0xC19 JUMP JUMPDEST SWAP3 SWAP2 POP POP JUMP JUMPDEST PUSH0 PUSH1 0x20 DUP3 DUP5 SUB SLT ISZERO PUSH2 0xC58 JUMPI PUSH2 0xC57 PUSH2 0xA56 JUMP JUMPDEST JUMPDEST PUSH0 PUSH2 0xC65 DUP5 DUP3 DUP6 ADD PUSH2 0xC2F JUMP JUMPDEST SWAP2 POP POP SWAP3 SWAP2 POP POP JUMP JUMPDEST PUSH2 0xC77 DUP2 PUSH2 0xC10 JUMP JUMPDEST DUP3 MSTORE POP POP JUMP JUMPDEST PUSH0 PUSH1 0x20 DUP3 ADD SWAP1 POP PUSH2 0xC90 PUSH0 DUP4 ADD DUP5 PUSH2 0xC6E JUMP JUMPDEST SWAP3 SWAP2 POP POP JUMP JUMPDEST PUSH0 PUSH20 0xFFFFFFFFFFFFFFFFFFFFFFFFFFFFFFFFFFFFFFFF DUP3 AND SWAP1 POP SWAP2 SWAP1 POP JUMP JUMPDEST PUSH0 PUSH2 0xCBF DUP3 PUSH2 0xC96 JUMP JUMPDEST SWAP1 POP SWAP2 SWAP1 POP JUMP JUMPDEST PUSH2 0xCCF DUP2 PUSH2 0xCB5 JUMP JUMPDEST DUP3 MSTORE POP POP JUMP JUMPDEST PUSH0 PUSH1 0x20 DUP3 ADD SWAP1 POP PUSH2 0xCE8 PUSH0 DUP4 ADD DUP5 PUSH2 0xCC6 JUMP JUMPDEST SWAP3 SWAP2 POP POP JUMP JUMPDEST PUSH2 0xCF7 DUP2 PUSH2 0xCB5 JUMP JUMPDEST DUP2 EQ PUSH2 0xD01 JUMPI PUSH0 DUP1 REVERT JUMPDEST POP JUMP JUMPDEST PUSH0 DUP2 CALLDATALOAD SWAP1 POP PUSH2 0xD12 DUP2 PUSH2 0xCEE JUMP JUMPDEST SWAP3 SWAP2 POP POP JUMP JUMPDEST PUSH0 PUSH1 0x20 DUP3 DUP5 SUB SLT ISZERO PUSH2 0xD2D JUMPI PUSH2 0xD2C PUSH2 0xA56 JUMP JUMPDEST JUMPDEST PUSH0 PUSH2 0xD3A DUP5 DUP3 DUP6 ADD PUSH2 0xD04 JUMP JUMPDEST SWAP2 POP POP SWAP3 SWAP2 POP POP JUMP JUMPDEST PUSH32 0x4E487B7100000000000000000000000000000000000000000000000000000000 PUSH0 MSTORE PUSH1 0x11 PUSH1 0x4 MSTORE PUSH1 0x24 PUSH0 REVERT JUMPDEST PUSH0 PUSH2 0xD7A DUP3 PUSH2 0xC10 JUMP JUMPDEST SWAP2 POP PUSH2 0xD85 DUP4 PUSH2 0xC10 JUMP JUMPDEST SWAP3 POP DUP3 DUP3 ADD SWAP1 POP DUP1 DUP3 GT ISZERO PUSH2 0xD9D JUMPI PUSH2 0xD9C PUSH2 0xD43 JUMP JUMPDEST JUMPDEST SWAP3 SWAP2 POP POP JUMP JUMPDEST PUSH0 DUP2 MLOAD SWAP1 POP SWAP2 SWAP1 POP JUMP JUMPDEST PUSH32 0x4E487B7100000000000000000000000000000000000000000000000000000000 PUSH0 MSTORE PUSH1 0x22 PUSH1 0x4 MSTORE PUSH1 0x24 PUSH0 REVERT JUMPDEST PUSH0 PUSH1 0x2 DUP3 DIV SWAP1 POP PUSH1 0x1 DUP3 AND DUP1 PUSH2 0xDF1 JUMPI PUSH1 0x7F DUP3 AND SWAP2 POP JUMPDEST PUSH1 0x20 DUP3 LT DUP2 SUB PUSH2 0xE04 JUMPI PUSH2 0xE03 PUSH2 0xDAD JUMP JUMPDEST JUMPDEST POP SWAP2 SWAP1 POP JUMP JUMPDEST PUSH0 DUP2 SWAP1 POP DUP2 PUSH0 MSTORE PUSH1 0x20 PUSH0 KECCAK256 SWAP1 POP SWAP2 SWAP1 POP JUMP JUMPDEST PUSH0 PUSH1 0x20 PUSH1 0x1F DUP4 ADD DIV SWAP1 POP SWAP2 SWAP1 POP JUMP JUMPDEST PUSH0 DUP3 DUP3 SHL SWAP1 POP SWAP3 SWAP2 POP POP JUMP JUMPDEST PUSH0 PUSH1 0x8 DUP4 MUL PUSH2 0xE66 PUSH32 0xFFFFFFFFFFFFFFFFFFFFFFFFFFFFFFFFFFFFFFFFFFFFFFFFFFFFFFFFFFFFFFFF DUP3 PUSH2 0xE2B JUMP JUMPDEST PUSH2 0xE70 DUP7 DUP4 PUSH2 0xE2B JUMP JUMPDEST SWAP6 POP DUP1 NOT DUP5 AND SWAP4 POP DUP1 DUP7 AND DUP5 OR SWAP3 POP POP POP SWAP4 SWAP3 POP POP POP JUMP JUMPDEST PUSH0 DUP2 SWAP1 POP SWAP2 SWAP1 POP JUMP JUMPDEST PUSH0 PUSH2 0xEAB PUSH2 0xEA6 PUSH2 0xEA1 DUP5 PUSH2 0xC10 JUMP JUMPDEST PUSH2 0xE88 JUMP JUMPDEST PUSH2 0xC10 JUMP JUMPDEST SWAP1 POP SWAP2 SWAP1 POP JUMP JUMPDEST PUSH0 DUP2 SWAP1 POP SWAP2 SWAP1 POP JUMP JUMPDEST PUSH2 0xEC4 DUP4 PUSH2 0xE91 JUMP JUMPDEST PUSH2 0xED8 PUSH2 0xED0 DUP3 PUSH2 0xEB2 JUMP JUMPDEST DUP5 DUP5 SLOAD PUSH2 0xE37 JUMP JUMPDEST DUP3 SSTORE POP POP POP POP JUMP JUMPDEST PUSH0 SWAP1 JUMP JUMPDEST PUSH2 0xEEC PUSH2 0xEE0 JUMP JUMPDEST PUSH2 0xEF7 DUP2 DUP5 DUP5 PUSH2 0xEBB JUMP JUMPDEST POP POP POP JUMP JUMPDEST JUMPDEST DUP2 DUP2 LT ISZERO PUSH2 0xF1A JUMPI PUSH2 0xF0F PUSH0 DUP3 PUSH2 0xEE4 JUMP JUMPDEST PUSH1 0x1 DUP2 ADD SWAP1 POP PUSH2 0xEFD JUMP JUMPDEST POP POP JUMP JUMPDEST PUSH1 0x1F DUP3 GT ISZERO PUSH2 0xF5F JUMPI PUSH2 0xF30 DUP2 PUSH2 0xE0A JUMP JUMPDEST PUSH2 0xF39 DUP5 PUSH2 0xE1C JUMP JUMPDEST DUP2 ADD PUSH1 0x20 DUP6 LT ISZERO PUSH2 0xF48 JUMPI DUP2 SWAP1 POP JUMPDEST PUSH2 0xF5C PUSH2 0xF54 DUP6 PUSH2 0xE1C JUMP JUMPDEST DUP4 ADD DUP3 PUSH2 0xEFC JUMP JUMPDEST POP POP JUMPDEST POP POP POP JUMP JUMPDEST PUSH0 DUP3 DUP3 SHR SWAP1 POP SWAP3 SWAP2 POP POP JUMP JUMPDEST PUSH0 PUSH2 0xF7F PUSH0 NOT DUP5 PUSH1 0x8 MUL PUSH2 0xF64 JUMP JUMPDEST NOT DUP1 DUP4 AND SWAP2 POP POP SWAP3 SWAP2 POP POP JUMP JUMPDEST PUSH0 PUSH2 0xF97 DUP4 DUP4 PUSH2 0xF70 JUMP JUMPDEST SWAP2 POP DUP3 PUSH1 0x2 MUL DUP3 OR SWAP1 POP SWAP3 SWAP2 POP POP JUMP JUMPDEST PUSH2 0xFB0 DUP3 PUSH2 0xDA3 JUMP JUMPDEST PUSH8 0xFFFFFFFFFFFFFFFF DUP2 GT ISZERO PUSH2 0xFC9 JUMPI PUSH2 0xFC8 PUSH2 0xA76 JUMP JUMPDEST JUMPDEST PUSH2 0xFD3 DUP3 SLOAD PUSH2 0xDDA JUMP JUMPDEST PUSH2 0xFDE DUP3 DUP3 DUP6 PUSH2 0xF1E JUMP JUMPDEST PUSH0 PUSH1 0x20 SWAP1 POP PUSH1 0x1F DUP4 GT PUSH1 0x1 DUP2 EQ PUSH2 0x100F JUMPI PUSH0 DUP5 ISZERO PUSH2 0xFFD JUMPI DUP3 DUP8 ADD MLOAD SWAP1 POP JUMPDEST PUSH2 0x1007 DUP6 DUP3 PUSH2 0xF8C JUMP JUMPDEST DUP7 SSTORE POP PUSH2 0x106E JUMP JUMPDEST PUSH1 0x1F NOT DUP5 AND PUSH2 0x101D DUP7 PUSH2 0xE0A JUMP JUMPDEST PUSH0 JUMPDEST DUP3 DUP2 LT ISZERO PUSH2 0x1044 JUMPI DUP5 DUP10 ADD MLOAD DUP3 SSTORE PUSH1 0x1 DUP3 ADD SWAP2 POP PUSH1 0x20 DUP6 ADD SWAP5 POP PUSH1 0x20 DUP2 ADD SWAP1 POP PUSH2 0x101F JUMP JUMPDEST DUP7 DUP4 LT ISZERO PUSH2 0x1061 JUMPI DUP5 DUP10 ADD MLOAD PUSH2 0x105D PUSH1 0x1F DUP10 AND DUP3 PUSH2 0xF70 JUMP JUMPDEST DUP4 SSTORE POP JUMPDEST PUSH1 0x1 PUSH1 0x2 DUP9 MUL ADD DUP9 SSTORE POP POP POP JUMPDEST POP POP POP POP POP POP JUMP JUMPDEST PUSH0 PUSH2 0x1080 DUP3 PUSH2 0xC10 JUMP JUMPDEST SWAP2 POP PUSH32 0xFFFFFFFFFFFFFFFFFFFFFFFFFFFFFFFFFFFFFFFFFFFFFFFFFFFFFFFFFFFFFFFF DUP3 SUB PUSH2 0x10B2 JUMPI PUSH2 0x10B1 PUSH2 0xD43 JUMP JUMPDEST JUMPDEST PUSH1 0x1 DUP3 ADD SWAP1 POP SWAP2 SWAP1 POP JUMP JUMPDEST PUSH0 PUSH2 0x10C7 DUP3 PUSH2 0xC10 JUMP JUMPDEST SWAP2 POP PUSH2 0x10D2 DUP4 PUSH2 0xC10 JUMP JUMPDEST SWAP3 POP DUP3 DUP3 SUB SWAP1 POP DUP2 DUP2 GT ISZERO PUSH2 0x10EA JUMPI PUSH2 0x10E9 PUSH2 0xD43 JUMP JUMPDEST JUMPDEST SWAP3 SWAP2 POP POP JUMP JUMPDEST PUSH0 DUP2 SWAP1 POP SWAP3 SWAP2 POP POP JUMP JUMPDEST POP JUMP JUMPDEST PUSH0 PUSH2 0x1108 PUSH0 DUP4 PUSH2 0x10F0 JUMP JUMPDEST SWAP2 POP PUSH2 0x1113 DUP3 PUSH2 0x10FA JUMP JUMPDEST PUSH0 DUP3 ADD SWAP1 POP SWAP2 SWAP1 POP JUMP JUMPDEST PUSH0 PUSH2 0x1127 DUP3 PUSH2 0x10FD JUMP JUMPDEST SWAP2 POP DUP2 SWAP1 POP SWAP2 SWAP1 POP JUMP INVALID LOG2 PUSH5 0x6970667358 0x22 SLT KECCAK256 0xE5 SWAP3 DUP6 0xE8 0xE7 DUP3 CALLCODE LOG0 SWAP14 SWAP3 0xC0 0xC3 DUP10 EQ PUSH0 0xBE 0xB5 MOD NUMBER 0xE7 0x4F 0x2B REVERT DUP16 0xD5 0xAE TSTORE GAS DUP1 0xD7 JUMPI PUSH10 0x64736F6C634300081A00 CALLER "
				},
				"gasEstimates": {
					"creation": {
						"codeDepositCost": "891000",
						"executionCost": "infinite",
						"totalCost": "infinite"
					},
					"external": {
						"createAccount(string,string)": "infinite",
						"deposit()": "infinite",
						"getBalance(address)": "5146",
						"i_bankCap()": "infinite",
						"i_contractOwner()": "infinite",
						"i_maxWithdrawAmount()": "infinite",
						"s_depositCounter()": "2514",
						"s_totalBankBalance()": "2447",
						"s_withdrawCounter()": "2513",
						"withdraw(uint256)": "infinite"
					},
					"internal": {
						"_updateVault(address,uint256)": "infinite"
					}
				},
				"methodIdentifiers": {
					"createAccount(string,string)": "19289287",
					"deposit()": "d0e30db0",
					"getBalance(address)": "f8b2cb4f",
					"i_bankCap()": "f6687af7",
					"i_contractOwner()": "38c22aef",
					"i_maxWithdrawAmount()": "35270e28",
					"s_depositCounter()": "b6223838",
					"s_totalBankBalance()": "e43fb75f",
					"s_withdrawCounter()": "fb80212c",
					"withdraw(uint256)": "2e1a7d4d"
				}
			},
			"storageLayout": {
				"storage": [
					{
						"astId": 21,
						"contract": "contracts/1_KipuBank.sol:Bank",
						"label": "accounts",
						"offset": 0,
						"slot": "0",
						"type": "t_mapping(t_address,t_struct(Account)15_storage)"
					},
					{
						"astId": 24,
						"contract": "contracts/1_KipuBank.sol:Bank",
						"label": "locked",
						"offset": 0,
						"slot": "1",
						"type": "t_bool"
					},
					{
						"astId": 37,
						"contract": "contracts/1_KipuBank.sol:Bank",
						"label": "s_depositCounter",
						"offset": 0,
						"slot": "2",
						"type": "t_uint256"
					},
					{
						"astId": 40,
						"contract": "contracts/1_KipuBank.sol:Bank",
						"label": "s_withdrawCounter",
						"offset": 0,
						"slot": "3",
						"type": "t_uint256"
					},
					{
						"astId": 43,
						"contract": "contracts/1_KipuBank.sol:Bank",
						"label": "s_totalBankBalance",
						"offset": 0,
						"slot": "4",
						"type": "t_uint256"
					}
				],
				"types": {
					"t_address": {
						"encoding": "inplace",
						"label": "address",
						"numberOfBytes": "20"
					},
					"t_bool": {
						"encoding": "inplace",
						"label": "bool",
						"numberOfBytes": "1"
					},
					"t_mapping(t_address,t_struct(Account)15_storage)": {
						"encoding": "mapping",
						"key": "t_address",
						"label": "mapping(address => struct Bank.Account)",
						"numberOfBytes": "32",
						"value": "t_struct(Account)15_storage"
					},
					"t_string_storage": {
						"encoding": "bytes",
						"label": "string",
						"numberOfBytes": "32"
					},
					"t_struct(Account)15_storage": {
						"encoding": "inplace",
						"label": "struct Bank.Account",
						"members": [
							{
								"astId": 5,
								"contract": "contracts/1_KipuBank.sol:Bank",
								"label": "balance",
								"offset": 0,
								"slot": "0",
								"type": "t_uint256"
							},
							{
								"astId": 8,
								"contract": "contracts/1_KipuBank.sol:Bank",
								"label": "name",
								"offset": 0,
								"slot": "1",
								"type": "t_string_storage"
							},
							{
								"astId": 11,
								"contract": "contracts/1_KipuBank.sol:Bank",
								"label": "email",
								"offset": 0,
								"slot": "2",
								"type": "t_string_storage"
							},
							{
								"astId": 14,
								"contract": "contracts/1_KipuBank.sol:Bank",
								"label": "exists",
								"offset": 0,
								"slot": "3",
								"type": "t_bool"
							}
						],
						"numberOfBytes": "128"
					},
					"t_uint256": {
						"encoding": "inplace",
						"label": "uint256",
						"numberOfBytes": "32"
					}
				}
			},
			"userdoc": {
				"events": {
					"Bank_Deposit(address,uint256)": {
						"notice": "Evento emitido cuando se realiza un depósito exitoso"
					},
					"Bank_Withdraw(address,uint256)": {
						"notice": "Evento emitido cuando se realiza un retiro exitoso"
					}
				},
				"kind": "user",
				"methods": {
					"constructor": {
						"notice": "Constructor del contrato"
					},
					"createAccount(string,string)": {
						"notice": "Crea una cuenta nueva con email y nombre, y deposita ETH inicial"
					},
					"deposit()": {
						"notice": "Permite a un usuario depositar ETH en su cuenta"
					},
					"getBalance(address)": {
						"notice": "Devuelve el balance de una cuenta"
					},
					"i_bankCap()": {
						"notice": "Capacidad máxima global de depósitos en el banco"
					},
					"i_contractOwner()": {
						"notice": "Dirección del dueño del contrato"
					},
					"i_maxWithdrawAmount()": {
						"notice": "Límite máximo de retiro permitido por transacción"
					},
					"s_depositCounter()": {
						"notice": "Contador de depósitos realizados en el contrato"
					},
					"s_totalBankBalance()": {
						"notice": "Suma total de fondos depositados en el banco"
					},
					"s_withdrawCounter()": {
						"notice": "Contador de retiros realizados en el contrato"
					},
					"withdraw(uint256)": {
						"notice": "Permite a un usuario retirar ETH de su cuenta, respetando el límite máximo"
					}
				},
				"notice": "Contrato bancario educativo que permite depósitos y retiros de ETH con límites y seguridad.",
				"version": 1
			}
		}
	}
}